{
	"lab_exercise/lab_exercive.sol": {
		"CrowdFund": {
			"abi": [
				{
					"inputs": [
						{
							"internalType": "uint256",
							"name": "_goal",
							"type": "uint256"
						},
						{
							"internalType": "uint256",
							"name": "_durationMinutes",
							"type": "uint256"
						}
					],
					"stateMutability": "nonpayable",
					"type": "constructor"
				},
				{
					"anonymous": false,
					"inputs": [
						{
							"indexed": false,
							"internalType": "address",
							"name": "contributor",
							"type": "address"
						},
						{
							"indexed": false,
							"internalType": "uint256",
							"name": "amount",
							"type": "uint256"
						}
					],
					"name": "FundReceived",
					"type": "event"
				},
				{
					"anonymous": false,
					"inputs": [
						{
							"indexed": false,
							"internalType": "uint256",
							"name": "totalAmount",
							"type": "uint256"
						}
					],
					"name": "GoalReached",
					"type": "event"
				},
				{
					"anonymous": false,
					"inputs": [
						{
							"indexed": false,
							"internalType": "address",
							"name": "contributor",
							"type": "address"
						},
						{
							"indexed": false,
							"internalType": "uint256",
							"name": "amount",
							"type": "uint256"
						}
					],
					"name": "Refunded",
					"type": "event"
				},
				{
					"inputs": [],
					"name": "checkBalance",
					"outputs": [
						{
							"internalType": "uint256",
							"name": "",
							"type": "uint256"
						}
					],
					"stateMutability": "view",
					"type": "function"
				},
				{
					"inputs": [],
					"name": "contribute",
					"outputs": [],
					"stateMutability": "payable",
					"type": "function"
				},
				{
					"inputs": [
						{
							"internalType": "address",
							"name": "",
							"type": "address"
						}
					],
					"name": "contributions",
					"outputs": [
						{
							"internalType": "uint256",
							"name": "",
							"type": "uint256"
						}
					],
					"stateMutability": "view",
					"type": "function"
				},
				{
					"inputs": [],
					"name": "contributorCount",
					"outputs": [
						{
							"internalType": "uint256",
							"name": "",
							"type": "uint256"
						}
					],
					"stateMutability": "view",
					"type": "function"
				},
				{
					"inputs": [],
					"name": "deadline",
					"outputs": [
						{
							"internalType": "uint256",
							"name": "",
							"type": "uint256"
						}
					],
					"stateMutability": "view",
					"type": "function"
				},
				{
					"inputs": [],
					"name": "getDetails",
					"outputs": [
						{
							"internalType": "uint256",
							"name": "_goal",
							"type": "uint256"
						},
						{
							"internalType": "uint256",
							"name": "_deadline",
							"type": "uint256"
						},
						{
							"internalType": "uint256",
							"name": "_raisedAmount",
							"type": "uint256"
						},
						{
							"internalType": "uint256",
							"name": "_contributorCount",
							"type": "uint256"
						},
						{
							"internalType": "bool",
							"name": "_goalReached",
							"type": "bool"
						},
						{
							"internalType": "bool",
							"name": "_withdrawn",
							"type": "bool"
						}
					],
					"stateMutability": "view",
					"type": "function"
				},
				{
					"inputs": [],
					"name": "goal",
					"outputs": [
						{
							"internalType": "uint256",
							"name": "",
							"type": "uint256"
						}
					],
					"stateMutability": "view",
					"type": "function"
				},
				{
					"inputs": [],
					"name": "goalReached",
					"outputs": [
						{
							"internalType": "bool",
							"name": "",
							"type": "bool"
						}
					],
					"stateMutability": "view",
					"type": "function"
				},
				{
					"inputs": [],
					"name": "owner",
					"outputs": [
						{
							"internalType": "address",
							"name": "",
							"type": "address"
						}
					],
					"stateMutability": "view",
					"type": "function"
				},
				{
					"inputs": [],
					"name": "raisedAmount",
					"outputs": [
						{
							"internalType": "uint256",
							"name": "",
							"type": "uint256"
						}
					],
					"stateMutability": "view",
					"type": "function"
				},
				{
					"inputs": [],
					"name": "refund",
					"outputs": [],
					"stateMutability": "nonpayable",
					"type": "function"
				},
				{
					"inputs": [],
					"name": "withdraw",
					"outputs": [],
					"stateMutability": "nonpayable",
					"type": "function"
				},
				{
					"inputs": [],
					"name": "withdrawn",
					"outputs": [
						{
							"internalType": "bool",
							"name": "",
							"type": "bool"
						}
					],
					"stateMutability": "view",
					"type": "function"
				}
			],
			"devdoc": {
				"kind": "dev",
				"methods": {},
				"version": 1
			},
			"evm": {
				"assembly": "    /* \"lab_exercise/lab_exercive.sol\":60:2656  contract CrowdFund {... */\n  mstore(0x40, 0x80)\n    /* \"lab_exercise/lab_exercive.sol\":867:1044  constructor(uint _goal, uint _durationMinutes) {... */\n  callvalue\n  dup1\n  iszero\n  tag_1\n  jumpi\n  0x00\n  dup1\n  revert\ntag_1:\n  pop\n  mload(0x40)\n  sub(codesize, bytecodeSize)\n  dup1\n  bytecodeSize\n  dup4\n  codecopy\n  dup2\n  dup2\n  add\n  0x40\n  mstore\n  dup2\n  add\n  swap1\n  tag_2\n  swap2\n  swap1\n  tag_3\n  jump\t// in\ntag_2:\n    /* \"lab_exercise/lab_exercive.sol\":933:943  msg.sender */\n  caller\n    /* \"lab_exercise/lab_exercive.sol\":925:930  owner */\n  0x00\n  dup1\n    /* \"lab_exercise/lab_exercive.sol\":925:943  owner = msg.sender */\n  0x0100\n  exp\n  dup2\n  sload\n  dup2\n  0xffffffffffffffffffffffffffffffffffffffff\n  mul\n  not\n  and\n  swap1\n  dup4\n  0xffffffffffffffffffffffffffffffffffffffff\n  and\n  mul\n  or\n  swap1\n  sstore\n  pop\n    /* \"lab_exercise/lab_exercive.sol\":961:966  _goal */\n  dup2\n    /* \"lab_exercise/lab_exercive.sol\":954:958  goal */\n  0x01\n    /* \"lab_exercise/lab_exercive.sol\":954:966  goal = _goal */\n  dup2\n  swap1\n  sstore\n  pop\n    /* \"lab_exercise/lab_exercive.sol\":1026:1035  1 minutes */\n  0x3c\n    /* \"lab_exercise/lab_exercive.sol\":1007:1023  _durationMinutes */\n  dup2\n    /* \"lab_exercise/lab_exercive.sol\":1007:1035  _durationMinutes * 1 minutes */\n  tag_6\n  swap2\n  swap1\n  tag_7\n  jump\t// in\ntag_6:\n    /* \"lab_exercise/lab_exercive.sol\":988:1003  block.timestamp */\n  timestamp\n    /* \"lab_exercise/lab_exercive.sol\":988:1036  block.timestamp + (_durationMinutes * 1 minutes) */\n  tag_8\n  swap2\n  swap1\n  tag_9\n  jump\t// in\ntag_8:\n    /* \"lab_exercise/lab_exercive.sol\":977:985  deadline */\n  0x02\n    /* \"lab_exercise/lab_exercive.sol\":977:1036  deadline = block.timestamp + (_durationMinutes * 1 minutes) */\n  dup2\n  swap1\n  sstore\n  pop\n    /* \"lab_exercise/lab_exercive.sol\":867:1044  constructor(uint _goal, uint _durationMinutes) {... */\n  pop\n  pop\n    /* \"lab_exercise/lab_exercive.sol\":60:2656  contract CrowdFund {... */\n  jump(tag_10)\n    /* \"#utility.yul\":88:205   */\ntag_12:\n    /* \"#utility.yul\":197:198   */\n  0x00\n    /* \"#utility.yul\":194:195   */\n  dup1\n    /* \"#utility.yul\":187:199   */\n  revert\n    /* \"#utility.yul\":334:411   */\ntag_14:\n    /* \"#utility.yul\":371:378   */\n  0x00\n    /* \"#utility.yul\":400:405   */\n  dup2\n    /* \"#utility.yul\":389:405   */\n  swap1\n  pop\n    /* \"#utility.yul\":334:411   */\n  swap2\n  swap1\n  pop\n  jump\t// out\n    /* \"#utility.yul\":417:539   */\ntag_15:\n    /* \"#utility.yul\":490:514   */\n  tag_24\n    /* \"#utility.yul\":508:513   */\n  dup2\n    /* \"#utility.yul\":490:514   */\n  tag_14\n  jump\t// in\ntag_24:\n    /* \"#utility.yul\":483:488   */\n  dup2\n    /* \"#utility.yul\":480:515   */\n  eq\n    /* \"#utility.yul\":470:533   */\n  tag_25\n  jumpi\n    /* \"#utility.yul\":529:530   */\n  0x00\n    /* \"#utility.yul\":526:527   */\n  dup1\n    /* \"#utility.yul\":519:531   */\n  revert\n    /* \"#utility.yul\":470:533   */\ntag_25:\n    /* \"#utility.yul\":417:539   */\n  pop\n  jump\t// out\n    /* \"#utility.yul\":545:688   */\ntag_16:\n    /* \"#utility.yul\":602:607   */\n  0x00\n    /* \"#utility.yul\":633:639   */\n  dup2\n    /* \"#utility.yul\":627:640   */\n  mload\n    /* \"#utility.yul\":618:640   */\n  swap1\n  pop\n    /* \"#utility.yul\":649:682   */\n  tag_27\n    /* \"#utility.yul\":676:681   */\n  dup2\n    /* \"#utility.yul\":649:682   */\n  tag_15\n  jump\t// in\ntag_27:\n    /* \"#utility.yul\":545:688   */\n  swap3\n  swap2\n  pop\n  pop\n  jump\t// out\n    /* \"#utility.yul\":694:1201   */\ntag_3:\n    /* \"#utility.yul\":773:779   */\n  0x00\n    /* \"#utility.yul\":781:787   */\n  dup1\n    /* \"#utility.yul\":830:832   */\n  0x40\n    /* \"#utility.yul\":818:827   */\n  dup4\n    /* \"#utility.yul\":809:816   */\n  dup6\n    /* \"#utility.yul\":805:828   */\n  sub\n    /* \"#utility.yul\":801:833   */\n  slt\n    /* \"#utility.yul\":798:917   */\n  iszero\n  tag_29\n  jumpi\n    /* \"#utility.yul\":836:915   */\n  tag_30\n  tag_12\n  jump\t// in\ntag_30:\n    /* \"#utility.yul\":798:917   */\ntag_29:\n    /* \"#utility.yul\":956:957   */\n  0x00\n    /* \"#utility.yul\":981:1045   */\n  tag_31\n    /* \"#utility.yul\":1037:1044   */\n  dup6\n    /* \"#utility.yul\":1028:1034   */\n  dup3\n    /* \"#utility.yul\":1017:1026   */\n  dup7\n    /* \"#utility.yul\":1013:1035   */\n  add\n    /* \"#utility.yul\":981:1045   */\n  tag_16\n  jump\t// in\ntag_31:\n    /* \"#utility.yul\":971:1045   */\n  swap3\n  pop\n    /* \"#utility.yul\":927:1055   */\n  pop\n    /* \"#utility.yul\":1094:1096   */\n  0x20\n    /* \"#utility.yul\":1120:1184   */\n  tag_32\n    /* \"#utility.yul\":1176:1183   */\n  dup6\n    /* \"#utility.yul\":1167:1173   */\n  dup3\n    /* \"#utility.yul\":1156:1165   */\n  dup7\n    /* \"#utility.yul\":1152:1174   */\n  add\n    /* \"#utility.yul\":1120:1184   */\n  tag_16\n  jump\t// in\ntag_32:\n    /* \"#utility.yul\":1110:1184   */\n  swap2\n  pop\n    /* \"#utility.yul\":1065:1194   */\n  pop\n    /* \"#utility.yul\":694:1201   */\n  swap3\n  pop\n  swap3\n  swap1\n  pop\n  jump\t// out\n    /* \"#utility.yul\":1207:1387   */\ntag_17:\n    /* \"#utility.yul\":1255:1332   */\n  0x4e487b7100000000000000000000000000000000000000000000000000000000\n    /* \"#utility.yul\":1252:1253   */\n  0x00\n    /* \"#utility.yul\":1245:1333   */\n  mstore\n    /* \"#utility.yul\":1352:1356   */\n  0x11\n    /* \"#utility.yul\":1349:1350   */\n  0x04\n    /* \"#utility.yul\":1342:1357   */\n  mstore\n    /* \"#utility.yul\":1376:1380   */\n  0x24\n    /* \"#utility.yul\":1373:1374   */\n  0x00\n    /* \"#utility.yul\":1366:1381   */\n  revert\n    /* \"#utility.yul\":1393:1803   */\ntag_7:\n    /* \"#utility.yul\":1433:1440   */\n  0x00\n    /* \"#utility.yul\":1456:1476   */\n  tag_35\n    /* \"#utility.yul\":1474:1475   */\n  dup3\n    /* \"#utility.yul\":1456:1476   */\n  tag_14\n  jump\t// in\ntag_35:\n    /* \"#utility.yul\":1451:1476   */\n  swap2\n  pop\n    /* \"#utility.yul\":1490:1510   */\n  tag_36\n    /* \"#utility.yul\":1508:1509   */\n  dup4\n    /* \"#utility.yul\":1490:1510   */\n  tag_14\n  jump\t// in\ntag_36:\n    /* \"#utility.yul\":1485:1510   */\n  swap3\n  pop\n    /* \"#utility.yul\":1545:1546   */\n  dup3\n    /* \"#utility.yul\":1542:1543   */\n  dup3\n    /* \"#utility.yul\":1538:1547   */\n  mul\n    /* \"#utility.yul\":1567:1597   */\n  tag_37\n    /* \"#utility.yul\":1585:1596   */\n  dup2\n    /* \"#utility.yul\":1567:1597   */\n  tag_14\n  jump\t// in\ntag_37:\n    /* \"#utility.yul\":1556:1597   */\n  swap2\n  pop\n    /* \"#utility.yul\":1746:1747   */\n  dup3\n    /* \"#utility.yul\":1737:1744   */\n  dup3\n    /* \"#utility.yul\":1733:1748   */\n  div\n    /* \"#utility.yul\":1730:1731   */\n  dup5\n    /* \"#utility.yul\":1727:1749   */\n  eq\n    /* \"#utility.yul\":1707:1708   */\n  dup4\n    /* \"#utility.yul\":1700:1709   */\n  iszero\n    /* \"#utility.yul\":1680:1763   */\n  or\n    /* \"#utility.yul\":1657:1796   */\n  tag_38\n  jumpi\n    /* \"#utility.yul\":1776:1794   */\n  tag_39\n  tag_17\n  jump\t// in\ntag_39:\n    /* \"#utility.yul\":1657:1796   */\ntag_38:\n    /* \"#utility.yul\":1441:1803   */\n  pop\n    /* \"#utility.yul\":1393:1803   */\n  swap3\n  swap2\n  pop\n  pop\n  jump\t// out\n    /* \"#utility.yul\":1809:2000   */\ntag_9:\n    /* \"#utility.yul\":1849:1852   */\n  0x00\n    /* \"#utility.yul\":1868:1888   */\n  tag_41\n    /* \"#utility.yul\":1886:1887   */\n  dup3\n    /* \"#utility.yul\":1868:1888   */\n  tag_14\n  jump\t// in\ntag_41:\n    /* \"#utility.yul\":1863:1888   */\n  swap2\n  pop\n    /* \"#utility.yul\":1902:1922   */\n  tag_42\n    /* \"#utility.yul\":1920:1921   */\n  dup4\n    /* \"#utility.yul\":1902:1922   */\n  tag_14\n  jump\t// in\ntag_42:\n    /* \"#utility.yul\":1897:1922   */\n  swap3\n  pop\n    /* \"#utility.yul\":1945:1946   */\n  dup3\n    /* \"#utility.yul\":1942:1943   */\n  dup3\n    /* \"#utility.yul\":1938:1947   */\n  add\n    /* \"#utility.yul\":1931:1947   */\n  swap1\n  pop\n    /* \"#utility.yul\":1966:1969   */\n  dup1\n    /* \"#utility.yul\":1963:1964   */\n  dup3\n    /* \"#utility.yul\":1960:1970   */\n  gt\n    /* \"#utility.yul\":1957:1993   */\n  iszero\n  tag_43\n  jumpi\n    /* \"#utility.yul\":1973:1991   */\n  tag_44\n  tag_17\n  jump\t// in\ntag_44:\n    /* \"#utility.yul\":1957:1993   */\ntag_43:\n    /* \"#utility.yul\":1809:2000   */\n  swap3\n  swap2\n  pop\n  pop\n  jump\t// out\n    /* \"lab_exercise/lab_exercive.sol\":60:2656  contract CrowdFund {... */\ntag_10:\n  dataSize(sub_0)\n  dup1\n  dataOffset(sub_0)\n  0x00\n  codecopy\n  0x00\n  return\nstop\n\nsub_0: assembly {\n        /* \"lab_exercise/lab_exercive.sol\":60:2656  contract CrowdFund {... */\n      mstore(0x40, 0x80)\n      jumpi(tag_1, lt(calldatasize, 0x04))\n      shr(0xe0, calldataload(0x00))\n      dup1\n      0x8da5cb5b\n      gt\n      tag_15\n      jumpi\n      dup1\n      0xc80ec522\n      gt\n      tag_16\n      jumpi\n      dup1\n      0xc80ec522\n      eq\n      tag_11\n      jumpi\n      dup1\n      0xd7bb99ba\n      eq\n      tag_12\n      jumpi\n      dup1\n      0xecfd8928\n      eq\n      tag_13\n      jumpi\n      dup1\n      0xfbbf93a0\n      eq\n      tag_14\n      jumpi\n      jump(tag_1)\n    tag_16:\n      dup1\n      0x8da5cb5b\n      eq\n      tag_8\n      jumpi\n      dup1\n      0xc59ee1dc\n      eq\n      tag_9\n      jumpi\n      dup1\n      0xc71daccb\n      eq\n      tag_10\n      jumpi\n      jump(tag_1)\n    tag_15:\n      dup1\n      0x29dcb0cf\n      eq\n      tag_2\n      jumpi\n      dup1\n      0x3ccfd60b\n      eq\n      tag_3\n      jumpi\n      dup1\n      0x40193883\n      eq\n      tag_4\n      jumpi\n      dup1\n      0x42e94c90\n      eq\n      tag_5\n      jumpi\n      dup1\n      0x590e1ae3\n      eq\n      tag_6\n      jumpi\n      dup1\n      0x7d3d6522\n      eq\n      tag_7\n      jumpi\n    tag_1:\n      0x00\n      dup1\n      revert\n        /* \"lab_exercise/lab_exercive.sol\":136:156  uint public deadline */\n    tag_2:\n      callvalue\n      dup1\n      iszero\n      tag_17\n      jumpi\n      0x00\n      dup1\n      revert\n    tag_17:\n      pop\n      tag_18\n      tag_19\n      jump\t// in\n    tag_18:\n      mload(0x40)\n      tag_20\n      swap2\n      swap1\n      tag_21\n      jump\t// in\n    tag_20:\n      mload(0x40)\n      dup1\n      swap2\n      sub\n      swap1\n      return\n        /* \"lab_exercise/lab_exercive.sol\":1682:1929  function withdraw() public onlyOwner afterDeadline {... */\n    tag_3:\n      callvalue\n      dup1\n      iszero\n      tag_22\n      jumpi\n      0x00\n      dup1\n      revert\n    tag_22:\n      pop\n      tag_23\n      tag_24\n      jump\t// in\n    tag_23:\n      stop\n        /* \"lab_exercise/lab_exercive.sol\":113:129  uint public goal */\n    tag_4:\n      callvalue\n      dup1\n      iszero\n      tag_25\n      jumpi\n      0x00\n      dup1\n      revert\n    tag_25:\n      pop\n      tag_26\n      tag_27\n      jump\t// in\n    tag_26:\n      mload(0x40)\n      tag_28\n      swap2\n      swap1\n      tag_21\n      jump\t// in\n    tag_28:\n      mload(0x40)\n      dup1\n      swap2\n      sub\n      swap1\n      return\n        /* \"lab_exercise/lab_exercive.sol\":231:276  mapping(address => uint) public contributions */\n    tag_5:\n      callvalue\n      dup1\n      iszero\n      tag_29\n      jumpi\n      0x00\n      dup1\n      revert\n    tag_29:\n      pop\n      tag_30\n      0x04\n      dup1\n      calldatasize\n      sub\n      dup2\n      add\n      swap1\n      tag_31\n      swap2\n      swap1\n      tag_32\n      jump\t// in\n    tag_31:\n      tag_33\n      jump\t// in\n    tag_30:\n      mload(0x40)\n      tag_34\n      swap2\n      swap1\n      tag_21\n      jump\t// in\n    tag_34:\n      mload(0x40)\n      dup1\n      swap2\n      sub\n      swap1\n      return\n        /* \"lab_exercise/lab_exercive.sol\":1937:2335  function refund() public afterDeadline {... */\n    tag_6:\n      callvalue\n      dup1\n      iszero\n      tag_35\n      jumpi\n      0x00\n      dup1\n      revert\n    tag_35:\n      pop\n      tag_36\n      tag_37\n      jump\t// in\n    tag_36:\n      stop\n        /* \"lab_exercise/lab_exercive.sol\":283:306  bool public goalReached */\n    tag_7:\n      callvalue\n      dup1\n      iszero\n      tag_38\n      jumpi\n      0x00\n      dup1\n      revert\n    tag_38:\n      pop\n      tag_39\n      tag_40\n      jump\t// in\n    tag_39:\n      mload(0x40)\n      tag_41\n      swap2\n      swap1\n      tag_42\n      jump\t// in\n    tag_41:\n      mload(0x40)\n      dup1\n      swap2\n      sub\n      swap1\n      return\n        /* \"lab_exercise/lab_exercive.sol\":86:106  address public owner */\n    tag_8:\n      callvalue\n      dup1\n      iszero\n      tag_43\n      jumpi\n      0x00\n      dup1\n      revert\n    tag_43:\n      pop\n      tag_44\n      tag_45\n      jump\t// in\n    tag_44:\n      mload(0x40)\n      tag_46\n      swap2\n      swap1\n      tag_47\n      jump\t// in\n    tag_46:\n      mload(0x40)\n      dup1\n      swap2\n      sub\n      swap1\n      return\n        /* \"lab_exercise/lab_exercive.sol\":163:187  uint public raisedAmount */\n    tag_9:\n      callvalue\n      dup1\n      iszero\n      tag_48\n      jumpi\n      0x00\n      dup1\n      revert\n    tag_48:\n      pop\n      tag_49\n      tag_50\n      jump\t// in\n    tag_49:\n      mload(0x40)\n      tag_51\n      swap2\n      swap1\n      tag_21\n      jump\t// in\n    tag_51:\n      mload(0x40)\n      dup1\n      swap2\n      sub\n      swap1\n      return\n        /* \"lab_exercise/lab_exercive.sol\":1576:1674  function checkBalance() public view returns (uint) {... */\n    tag_10:\n      callvalue\n      dup1\n      iszero\n      tag_52\n      jumpi\n      0x00\n      dup1\n      revert\n    tag_52:\n      pop\n      tag_53\n      tag_54\n      jump\t// in\n    tag_53:\n      mload(0x40)\n      tag_55\n      swap2\n      swap1\n      tag_21\n      jump\t// in\n    tag_55:\n      mload(0x40)\n      dup1\n      swap2\n      sub\n      swap1\n      return\n        /* \"lab_exercise/lab_exercive.sol\":313:334  bool public withdrawn */\n    tag_11:\n      callvalue\n      dup1\n      iszero\n      tag_56\n      jumpi\n      0x00\n      dup1\n      revert\n    tag_56:\n      pop\n      tag_57\n      tag_58\n      jump\t// in\n    tag_57:\n      mload(0x40)\n      tag_59\n      swap2\n      swap1\n      tag_42\n      jump\t// in\n    tag_59:\n      mload(0x40)\n      dup1\n      swap2\n      sub\n      swap1\n      return\n        /* \"lab_exercise/lab_exercive.sol\":1052:1568  function contribute() public payable beforeDeadline {... */\n    tag_12:\n      tag_60\n      tag_61\n      jump\t// in\n    tag_60:\n      stop\n        /* \"lab_exercise/lab_exercive.sol\":194:222  uint public contributorCount */\n    tag_13:\n      callvalue\n      dup1\n      iszero\n      tag_62\n      jumpi\n      0x00\n      dup1\n      revert\n    tag_62:\n      pop\n      tag_63\n      tag_64\n      jump\t// in\n    tag_63:\n      mload(0x40)\n      tag_65\n      swap2\n      swap1\n      tag_21\n      jump\t// in\n    tag_65:\n      mload(0x40)\n      dup1\n      swap2\n      sub\n      swap1\n      return\n        /* \"lab_exercise/lab_exercive.sol\":2343:2653  function getDetails() public view returns (... */\n    tag_14:\n      callvalue\n      dup1\n      iszero\n      tag_66\n      jumpi\n      0x00\n      dup1\n      revert\n    tag_66:\n      pop\n      tag_67\n      tag_68\n      jump\t// in\n    tag_67:\n      mload(0x40)\n      tag_69\n      swap7\n      swap6\n      swap5\n      swap4\n      swap3\n      swap2\n      swap1\n      tag_70\n      jump\t// in\n    tag_69:\n      mload(0x40)\n      dup1\n      swap2\n      sub\n      swap1\n      return\n        /* \"lab_exercise/lab_exercive.sol\":136:156  uint public deadline */\n    tag_19:\n      sload(0x02)\n      dup2\n      jump\t// out\n        /* \"lab_exercise/lab_exercive.sol\":1682:1929  function withdraw() public onlyOwner afterDeadline {... */\n    tag_24:\n        /* \"lab_exercise/lab_exercive.sol\":555:560  owner */\n      0x00\n      dup1\n      sload\n      swap1\n      0x0100\n      exp\n      swap1\n      div\n      0xffffffffffffffffffffffffffffffffffffffff\n      and\n        /* \"lab_exercise/lab_exercive.sol\":541:560  msg.sender == owner */\n      0xffffffffffffffffffffffffffffffffffffffff\n      and\n        /* \"lab_exercise/lab_exercive.sol\":541:551  msg.sender */\n      caller\n        /* \"lab_exercise/lab_exercive.sol\":541:560  msg.sender == owner */\n      0xffffffffffffffffffffffffffffffffffffffff\n      and\n      eq\n        /* \"lab_exercise/lab_exercive.sol\":533:592  require(msg.sender == owner, \"Only owner can perform this\") */\n      tag_72\n      jumpi\n      mload(0x40)\n      0x08c379a000000000000000000000000000000000000000000000000000000000\n      dup2\n      mstore\n      0x04\n      add\n      tag_73\n      swap1\n      tag_74\n      jump\t// in\n    tag_73:\n      mload(0x40)\n      dup1\n      swap2\n      sub\n      swap1\n      revert\n    tag_72:\n        /* \"lab_exercise/lab_exercive.sol\":802:810  deadline */\n      sload(0x02)\n        /* \"lab_exercise/lab_exercive.sol\":783:798  block.timestamp */\n      timestamp\n        /* \"lab_exercise/lab_exercive.sol\":783:810  block.timestamp >= deadline */\n      lt\n      iszero\n        /* \"lab_exercise/lab_exercive.sol\":775:839  require(block.timestamp >= deadline, \"Deadline not reached yet\") */\n      tag_76\n      jumpi\n      mload(0x40)\n      0x08c379a000000000000000000000000000000000000000000000000000000000\n      dup2\n      mstore\n      0x04\n      add\n      tag_77\n      swap1\n      tag_78\n      jump\t// in\n    tag_77:\n      mload(0x40)\n      dup1\n      swap2\n      sub\n      swap1\n      revert\n    tag_76:\n        /* \"lab_exercise/lab_exercive.sol\":1752:1763  goalReached */\n      0x06\n      0x00\n      swap1\n      sload\n      swap1\n      0x0100\n      exp\n      swap1\n      div\n      0xff\n      and\n        /* \"lab_exercise/lab_exercive.sol\":1744:1784  require(goalReached, \"Goal not reached\") */\n      tag_80\n      jumpi\n      mload(0x40)\n      0x08c379a000000000000000000000000000000000000000000000000000000000\n      dup2\n      mstore\n      0x04\n      add\n      tag_81\n      swap1\n      tag_82\n      jump\t// in\n    tag_81:\n      mload(0x40)\n      dup1\n      swap2\n      sub\n      swap1\n      revert\n    tag_80:\n        /* \"lab_exercise/lab_exercive.sol\":1804:1813  withdrawn */\n      0x06\n      0x01\n      swap1\n      sload\n      swap1\n      0x0100\n      exp\n      swap1\n      div\n      0xff\n      and\n        /* \"lab_exercise/lab_exercive.sol\":1803:1813  !withdrawn */\n      iszero\n        /* \"lab_exercise/lab_exercive.sol\":1795:1835  require(!withdrawn, \"Already withdrawn\") */\n      tag_83\n      jumpi\n      mload(0x40)\n      0x08c379a000000000000000000000000000000000000000000000000000000000\n      dup2\n      mstore\n      0x04\n      add\n      tag_84\n      swap1\n      tag_85\n      jump\t// in\n    tag_84:\n      mload(0x40)\n      dup1\n      swap2\n      sub\n      swap1\n      revert\n    tag_83:\n        /* \"lab_exercise/lab_exercive.sol\":1860:1864  true */\n      0x01\n        /* \"lab_exercise/lab_exercive.sol\":1848:1857  withdrawn */\n      0x06\n      0x01\n        /* \"lab_exercise/lab_exercive.sol\":1848:1864  withdrawn = true */\n      0x0100\n      exp\n      dup2\n      sload\n      dup2\n      0xff\n      mul\n      not\n      and\n      swap1\n      dup4\n      iszero\n      iszero\n      mul\n      or\n      swap1\n      sstore\n      pop\n        /* \"lab_exercise/lab_exercive.sol\":1883:1888  owner */\n      0x00\n      dup1\n      sload\n      swap1\n      0x0100\n      exp\n      swap1\n      div\n      0xffffffffffffffffffffffffffffffffffffffff\n      and\n        /* \"lab_exercise/lab_exercive.sol\":1875:1898  payable(owner).transfer */\n      0xffffffffffffffffffffffffffffffffffffffff\n      and\n        /* \"lab_exercise/lab_exercive.sol\":1875:1921  payable(owner).transfer(address(this).balance) */\n      0x08fc\n        /* \"lab_exercise/lab_exercive.sol\":1899:1920  address(this).balance */\n      selfbalance\n        /* \"lab_exercise/lab_exercive.sol\":1875:1921  payable(owner).transfer(address(this).balance) */\n      swap1\n      dup2\n      iszero\n      mul\n      swap1\n      mload(0x40)\n      0x00\n      mload(0x40)\n      dup1\n      dup4\n      sub\n      dup2\n      dup6\n      dup9\n      dup9\n      call\n      swap4\n      pop\n      pop\n      pop\n      pop\n      iszero\n      dup1\n      iszero\n      tag_87\n      jumpi\n      returndatasize\n      0x00\n      dup1\n      returndatacopy\n      revert(0x00, returndatasize)\n    tag_87:\n      pop\n        /* \"lab_exercise/lab_exercive.sol\":1682:1929  function withdraw() public onlyOwner afterDeadline {... */\n      jump\t// out\n        /* \"lab_exercise/lab_exercive.sol\":113:129  uint public goal */\n    tag_27:\n      sload(0x01)\n      dup2\n      jump\t// out\n        /* \"lab_exercise/lab_exercive.sol\":231:276  mapping(address => uint) public contributions */\n    tag_33:\n      mstore(0x20, 0x05)\n      dup1\n      0x00\n      mstore\n      keccak256(0x00, 0x40)\n      0x00\n      swap2\n      pop\n      swap1\n      pop\n      sload\n      dup2\n      jump\t// out\n        /* \"lab_exercise/lab_exercive.sol\":1937:2335  function refund() public afterDeadline {... */\n    tag_37:\n        /* \"lab_exercise/lab_exercive.sol\":802:810  deadline */\n      sload(0x02)\n        /* \"lab_exercise/lab_exercive.sol\":783:798  block.timestamp */\n      timestamp\n        /* \"lab_exercise/lab_exercive.sol\":783:810  block.timestamp >= deadline */\n      lt\n      iszero\n        /* \"lab_exercise/lab_exercive.sol\":775:839  require(block.timestamp >= deadline, \"Deadline not reached yet\") */\n      tag_89\n      jumpi\n      mload(0x40)\n      0x08c379a000000000000000000000000000000000000000000000000000000000\n      dup2\n      mstore\n      0x04\n      add\n      tag_90\n      swap1\n      tag_78\n      jump\t// in\n    tag_90:\n      mload(0x40)\n      dup1\n      swap2\n      sub\n      swap1\n      revert\n    tag_89:\n        /* \"lab_exercise/lab_exercive.sol\":1996:2007  goalReached */\n      0x06\n      0x00\n      swap1\n      sload\n      swap1\n      0x0100\n      exp\n      swap1\n      div\n      0xff\n      and\n        /* \"lab_exercise/lab_exercive.sol\":1995:2007  !goalReached */\n      iszero\n        /* \"lab_exercise/lab_exercive.sol\":1987:2049  require(!goalReached, \"Goal was reached, refund not possible\") */\n      tag_92\n      jumpi\n      mload(0x40)\n      0x08c379a000000000000000000000000000000000000000000000000000000000\n      dup2\n      mstore\n      0x04\n      add\n      tag_93\n      swap1\n      tag_94\n      jump\t// in\n    tag_93:\n      mload(0x40)\n      dup1\n      swap2\n      sub\n      swap1\n      revert\n    tag_92:\n        /* \"lab_exercise/lab_exercive.sol\":2096:2097  0 */\n      0x00\n        /* \"lab_exercise/lab_exercive.sol\":2068:2081  contributions */\n      0x05\n        /* \"lab_exercise/lab_exercive.sol\":2068:2093  contributions[msg.sender] */\n      0x00\n        /* \"lab_exercise/lab_exercive.sol\":2082:2092  msg.sender */\n      caller\n        /* \"lab_exercise/lab_exercive.sol\":2068:2093  contributions[msg.sender] */\n      0xffffffffffffffffffffffffffffffffffffffff\n      and\n      0xffffffffffffffffffffffffffffffffffffffff\n      and\n      dup2\n      mstore\n      0x20\n      add\n      swap1\n      dup2\n      mstore\n      0x20\n      add\n      0x00\n      keccak256\n      sload\n        /* \"lab_exercise/lab_exercive.sol\":2068:2097  contributions[msg.sender] > 0 */\n      gt\n        /* \"lab_exercise/lab_exercive.sol\":2060:2124  require(contributions[msg.sender] > 0, \"No contributions found\") */\n      tag_95\n      jumpi\n      mload(0x40)\n      0x08c379a000000000000000000000000000000000000000000000000000000000\n      dup2\n      mstore\n      0x04\n      add\n      tag_96\n      swap1\n      tag_97\n      jump\t// in\n    tag_96:\n      mload(0x40)\n      dup1\n      swap2\n      sub\n      swap1\n      revert\n    tag_95:\n        /* \"lab_exercise/lab_exercive.sol\":2137:2154  uint refundAmount */\n      0x00\n        /* \"lab_exercise/lab_exercive.sol\":2157:2170  contributions */\n      0x05\n        /* \"lab_exercise/lab_exercive.sol\":2157:2182  contributions[msg.sender] */\n      0x00\n        /* \"lab_exercise/lab_exercive.sol\":2171:2181  msg.sender */\n      caller\n        /* \"lab_exercise/lab_exercive.sol\":2157:2182  contributions[msg.sender] */\n      0xffffffffffffffffffffffffffffffffffffffff\n      and\n      0xffffffffffffffffffffffffffffffffffffffff\n      and\n      dup2\n      mstore\n      0x20\n      add\n      swap1\n      dup2\n      mstore\n      0x20\n      add\n      0x00\n      keccak256\n      sload\n        /* \"lab_exercise/lab_exercive.sol\":2137:2182  uint refundAmount = contributions[msg.sender] */\n      swap1\n      pop\n        /* \"lab_exercise/lab_exercive.sol\":2221:2222  0 */\n      0x00\n        /* \"lab_exercise/lab_exercive.sol\":2193:2206  contributions */\n      0x05\n        /* \"lab_exercise/lab_exercive.sol\":2193:2218  contributions[msg.sender] */\n      0x00\n        /* \"lab_exercise/lab_exercive.sol\":2207:2217  msg.sender */\n      caller\n        /* \"lab_exercise/lab_exercive.sol\":2193:2218  contributions[msg.sender] */\n      0xffffffffffffffffffffffffffffffffffffffff\n      and\n      0xffffffffffffffffffffffffffffffffffffffff\n      and\n      dup2\n      mstore\n      0x20\n      add\n      swap1\n      dup2\n      mstore\n      0x20\n      add\n      0x00\n      keccak256\n        /* \"lab_exercise/lab_exercive.sol\":2193:2222  contributions[msg.sender] = 0 */\n      dup2\n      swap1\n      sstore\n      pop\n        /* \"lab_exercise/lab_exercive.sol\":2241:2251  msg.sender */\n      caller\n        /* \"lab_exercise/lab_exercive.sol\":2233:2261  payable(msg.sender).transfer */\n      0xffffffffffffffffffffffffffffffffffffffff\n      and\n        /* \"lab_exercise/lab_exercive.sol\":2233:2275  payable(msg.sender).transfer(refundAmount) */\n      0x08fc\n        /* \"lab_exercise/lab_exercive.sol\":2262:2274  refundAmount */\n      dup3\n        /* \"lab_exercise/lab_exercive.sol\":2233:2275  payable(msg.sender).transfer(refundAmount) */\n      swap1\n      dup2\n      iszero\n      mul\n      swap1\n      mload(0x40)\n      0x00\n      mload(0x40)\n      dup1\n      dup4\n      sub\n      dup2\n      dup6\n      dup9\n      dup9\n      call\n      swap4\n      pop\n      pop\n      pop\n      pop\n      iszero\n      dup1\n      iszero\n      tag_99\n      jumpi\n      returndatasize\n      0x00\n      dup1\n      returndatacopy\n      revert(0x00, returndatasize)\n    tag_99:\n      pop\n        /* \"lab_exercise/lab_exercive.sol\":2293:2327  Refunded(msg.sender, refundAmount) */\n      0xd7dee2702d63ad89917b6a4da9981c90c4d24f8c2bdfd64c604ecae57d8d0651\n        /* \"lab_exercise/lab_exercive.sol\":2302:2312  msg.sender */\n      caller\n        /* \"lab_exercise/lab_exercive.sol\":2314:2326  refundAmount */\n      dup3\n        /* \"lab_exercise/lab_exercive.sol\":2293:2327  Refunded(msg.sender, refundAmount) */\n      mload(0x40)\n      tag_100\n      swap3\n      swap2\n      swap1\n      tag_101\n      jump\t// in\n    tag_100:\n      mload(0x40)\n      dup1\n      swap2\n      sub\n      swap1\n      log1\n        /* \"lab_exercise/lab_exercive.sol\":1976:2335  {... */\n      pop\n        /* \"lab_exercise/lab_exercive.sol\":1937:2335  function refund() public afterDeadline {... */\n      jump\t// out\n        /* \"lab_exercise/lab_exercive.sol\":283:306  bool public goalReached */\n    tag_40:\n      0x06\n      0x00\n      swap1\n      sload\n      swap1\n      0x0100\n      exp\n      swap1\n      div\n      0xff\n      and\n      dup2\n      jump\t// out\n        /* \"lab_exercise/lab_exercive.sol\":86:106  address public owner */\n    tag_45:\n      0x00\n      dup1\n      sload\n      swap1\n      0x0100\n      exp\n      swap1\n      div\n      0xffffffffffffffffffffffffffffffffffffffff\n      and\n      dup2\n      jump\t// out\n        /* \"lab_exercise/lab_exercive.sol\":163:187  uint public raisedAmount */\n    tag_50:\n      sload(0x03)\n      dup2\n      jump\t// out\n        /* \"lab_exercise/lab_exercive.sol\":1576:1674  function checkBalance() public view returns (uint) {... */\n    tag_54:\n        /* \"lab_exercise/lab_exercive.sol\":1621:1625  uint */\n      0x00\n        /* \"lab_exercise/lab_exercive.sol\":1645:1666  address(this).balance */\n      selfbalance\n        /* \"lab_exercise/lab_exercive.sol\":1638:1666  return address(this).balance */\n      swap1\n      pop\n        /* \"lab_exercise/lab_exercive.sol\":1576:1674  function checkBalance() public view returns (uint) {... */\n      swap1\n      jump\t// out\n        /* \"lab_exercise/lab_exercive.sol\":313:334  bool public withdrawn */\n    tag_58:\n      0x06\n      0x01\n      swap1\n      sload\n      swap1\n      0x0100\n      exp\n      swap1\n      div\n      0xff\n      and\n      dup2\n      jump\t// out\n        /* \"lab_exercise/lab_exercive.sol\":1052:1568  function contribute() public payable beforeDeadline {... */\n    tag_61:\n        /* \"lab_exercise/lab_exercive.sol\":683:691  deadline */\n      sload(0x02)\n        /* \"lab_exercise/lab_exercive.sol\":665:680  block.timestamp */\n      timestamp\n        /* \"lab_exercise/lab_exercive.sol\":665:691  block.timestamp < deadline */\n      lt\n        /* \"lab_exercise/lab_exercive.sol\":657:711  require(block.timestamp < deadline, \"Deadline passed\") */\n      tag_104\n      jumpi\n      mload(0x40)\n      0x08c379a000000000000000000000000000000000000000000000000000000000\n      dup2\n      mstore\n      0x04\n      add\n      tag_105\n      swap1\n      tag_106\n      jump\t// in\n    tag_105:\n      mload(0x40)\n      dup1\n      swap2\n      sub\n      swap1\n      revert\n    tag_104:\n        /* \"lab_exercise/lab_exercive.sol\":1136:1146  0.01 ether */\n      0x2386f26fc10000\n        /* \"lab_exercise/lab_exercive.sol\":1123:1132  msg.value */\n      callvalue\n        /* \"lab_exercise/lab_exercive.sol\":1123:1146  msg.value >= 0.01 ether */\n      lt\n      iszero\n        /* \"lab_exercise/lab_exercive.sol\":1115:1183  require(msg.value >= 0.01 ether, \"Minimum contribution is 0.01 ETH\") */\n      tag_108\n      jumpi\n      mload(0x40)\n      0x08c379a000000000000000000000000000000000000000000000000000000000\n      dup2\n      mstore\n      0x04\n      add\n      tag_109\n      swap1\n      tag_110\n      jump\t// in\n    tag_109:\n      mload(0x40)\n      dup1\n      swap2\n      sub\n      swap1\n      revert\n    tag_108:\n        /* \"lab_exercise/lab_exercive.sol\":1229:1230  0 */\n      0x00\n        /* \"lab_exercise/lab_exercive.sol\":1200:1213  contributions */\n      0x05\n        /* \"lab_exercise/lab_exercive.sol\":1200:1225  contributions[msg.sender] */\n      0x00\n        /* \"lab_exercise/lab_exercive.sol\":1214:1224  msg.sender */\n      caller\n        /* \"lab_exercise/lab_exercive.sol\":1200:1225  contributions[msg.sender] */\n      0xffffffffffffffffffffffffffffffffffffffff\n      and\n      0xffffffffffffffffffffffffffffffffffffffff\n      and\n      dup2\n      mstore\n      0x20\n      add\n      swap1\n      dup2\n      mstore\n      0x20\n      add\n      0x00\n      keccak256\n      sload\n        /* \"lab_exercise/lab_exercive.sol\":1200:1230  contributions[msg.sender] == 0 */\n      sub\n        /* \"lab_exercise/lab_exercive.sol\":1196:1277  if (contributions[msg.sender] == 0) {... */\n      tag_111\n      jumpi\n        /* \"lab_exercise/lab_exercive.sol\":1247:1263  contributorCount */\n      0x04\n      0x00\n        /* \"lab_exercise/lab_exercive.sol\":1247:1265  contributorCount++ */\n      dup2\n      sload\n      dup1\n      swap3\n      swap2\n      swap1\n      tag_112\n      swap1\n      tag_113\n      jump\t// in\n    tag_112:\n      swap2\n      swap1\n      pop\n      sstore\n      pop\n        /* \"lab_exercise/lab_exercive.sol\":1196:1277  if (contributions[msg.sender] == 0) {... */\n    tag_111:\n        /* \"lab_exercise/lab_exercive.sol\":1318:1327  msg.value */\n      callvalue\n        /* \"lab_exercise/lab_exercive.sol\":1289:1302  contributions */\n      0x05\n        /* \"lab_exercise/lab_exercive.sol\":1289:1314  contributions[msg.sender] */\n      0x00\n        /* \"lab_exercise/lab_exercive.sol\":1303:1313  msg.sender */\n      caller\n        /* \"lab_exercise/lab_exercive.sol\":1289:1314  contributions[msg.sender] */\n      0xffffffffffffffffffffffffffffffffffffffff\n      and\n      0xffffffffffffffffffffffffffffffffffffffff\n      and\n      dup2\n      mstore\n      0x20\n      add\n      swap1\n      dup2\n      mstore\n      0x20\n      add\n      0x00\n      keccak256\n      0x00\n        /* \"lab_exercise/lab_exercive.sol\":1289:1327  contributions[msg.sender] += msg.value */\n      dup3\n      dup3\n      sload\n      tag_114\n      swap2\n      swap1\n      tag_115\n      jump\t// in\n    tag_114:\n      swap3\n      pop\n      pop\n      dup2\n      swap1\n      sstore\n      pop\n        /* \"lab_exercise/lab_exercive.sol\":1354:1363  msg.value */\n      callvalue\n        /* \"lab_exercise/lab_exercive.sol\":1338:1350  raisedAmount */\n      0x03\n      0x00\n        /* \"lab_exercise/lab_exercive.sol\":1338:1363  raisedAmount += msg.value */\n      dup3\n      dup3\n      sload\n      tag_116\n      swap2\n      swap1\n      tag_115\n      jump\t// in\n    tag_116:\n      swap3\n      pop\n      pop\n      dup2\n      swap1\n      sstore\n      pop\n        /* \"lab_exercise/lab_exercive.sol\":1381:1416  FundReceived(msg.sender, msg.value) */\n      0x54a5b8782470a0d2c022b3b9e5e729503ac5dbdfe053afeb4559f9297f7565a6\n        /* \"lab_exercise/lab_exercive.sol\":1394:1404  msg.sender */\n      caller\n        /* \"lab_exercise/lab_exercive.sol\":1406:1415  msg.value */\n      callvalue\n        /* \"lab_exercise/lab_exercive.sol\":1381:1416  FundReceived(msg.sender, msg.value) */\n      mload(0x40)\n      tag_117\n      swap3\n      swap2\n      swap1\n      tag_101\n      jump\t// in\n    tag_117:\n      mload(0x40)\n      dup1\n      swap2\n      sub\n      swap1\n      log1\n        /* \"lab_exercise/lab_exercive.sol\":1449:1453  goal */\n      sload(0x01)\n        /* \"lab_exercise/lab_exercive.sol\":1433:1445  raisedAmount */\n      sload(0x03)\n        /* \"lab_exercise/lab_exercive.sol\":1433:1453  raisedAmount >= goal */\n      lt\n      iszero\n        /* \"lab_exercise/lab_exercive.sol\":1433:1469  raisedAmount >= goal && !goalReached */\n      dup1\n      iszero\n      tag_118\n      jumpi\n      pop\n        /* \"lab_exercise/lab_exercive.sol\":1458:1469  goalReached */\n      0x06\n      0x00\n      swap1\n      sload\n      swap1\n      0x0100\n      exp\n      swap1\n      div\n      0xff\n      and\n        /* \"lab_exercise/lab_exercive.sol\":1457:1469  !goalReached */\n      iszero\n        /* \"lab_exercise/lab_exercive.sol\":1433:1469  raisedAmount >= goal && !goalReached */\n    tag_118:\n        /* \"lab_exercise/lab_exercive.sol\":1429:1561  if (raisedAmount >= goal && !goalReached) {... */\n      iszero\n      tag_119\n      jumpi\n        /* \"lab_exercise/lab_exercive.sol\":1500:1504  true */\n      0x01\n        /* \"lab_exercise/lab_exercive.sol\":1486:1497  goalReached */\n      0x06\n      0x00\n        /* \"lab_exercise/lab_exercive.sol\":1486:1504  goalReached = true */\n      0x0100\n      exp\n      dup2\n      sload\n      dup2\n      0xff\n      mul\n      not\n      and\n      swap1\n      dup4\n      iszero\n      iszero\n      mul\n      or\n      swap1\n      sstore\n      pop\n        /* \"lab_exercise/lab_exercive.sol\":1524:1549  GoalReached(raisedAmount) */\n      0xfbfd8ab7c24300fa9888cd721c8565a7da56759384781283684dcf7c7c4a846b\n        /* \"lab_exercise/lab_exercive.sol\":1536:1548  raisedAmount */\n      sload(0x03)\n        /* \"lab_exercise/lab_exercive.sol\":1524:1549  GoalReached(raisedAmount) */\n      mload(0x40)\n      tag_120\n      swap2\n      swap1\n      tag_21\n      jump\t// in\n    tag_120:\n      mload(0x40)\n      dup1\n      swap2\n      sub\n      swap1\n      log1\n        /* \"lab_exercise/lab_exercive.sol\":1429:1561  if (raisedAmount >= goal && !goalReached) {... */\n    tag_119:\n        /* \"lab_exercise/lab_exercive.sol\":1052:1568  function contribute() public payable beforeDeadline {... */\n      jump\t// out\n        /* \"lab_exercise/lab_exercive.sol\":194:222  uint public contributorCount */\n    tag_64:\n      sload(0x04)\n      dup2\n      jump\t// out\n        /* \"lab_exercise/lab_exercive.sol\":2343:2653  function getDetails() public view returns (... */\n    tag_68:\n        /* \"lab_exercise/lab_exercive.sol\":2396:2406  uint _goal */\n      0x00\n        /* \"lab_exercise/lab_exercive.sol\":2417:2431  uint _deadline */\n      dup1\n        /* \"lab_exercise/lab_exercive.sol\":2442:2460  uint _raisedAmount */\n      0x00\n        /* \"lab_exercise/lab_exercive.sol\":2471:2493  uint _contributorCount */\n      dup1\n        /* \"lab_exercise/lab_exercive.sol\":2504:2521  bool _goalReached */\n      0x00\n        /* \"lab_exercise/lab_exercive.sol\":2532:2547  bool _withdrawn */\n      dup1\n        /* \"lab_exercise/lab_exercive.sol\":2574:2578  goal */\n      sload(0x01)\n        /* \"lab_exercise/lab_exercive.sol\":2580:2588  deadline */\n      sload(0x02)\n        /* \"lab_exercise/lab_exercive.sol\":2590:2602  raisedAmount */\n      sload(0x03)\n        /* \"lab_exercise/lab_exercive.sol\":2604:2620  contributorCount */\n      sload(0x04)\n        /* \"lab_exercise/lab_exercive.sol\":2622:2633  goalReached */\n      0x06\n      0x00\n      swap1\n      sload\n      swap1\n      0x0100\n      exp\n      swap1\n      div\n      0xff\n      and\n        /* \"lab_exercise/lab_exercive.sol\":2635:2644  withdrawn */\n      0x06\n      0x01\n      swap1\n      sload\n      swap1\n      0x0100\n      exp\n      swap1\n      div\n      0xff\n      and\n        /* \"lab_exercise/lab_exercive.sol\":2566:2645  return (goal, deadline, raisedAmount, contributorCount, goalReached, withdrawn) */\n      swap6\n      pop\n      swap6\n      pop\n      swap6\n      pop\n      swap6\n      pop\n      swap6\n      pop\n      swap6\n      pop\n        /* \"lab_exercise/lab_exercive.sol\":2343:2653  function getDetails() public view returns (... */\n      swap1\n      swap2\n      swap3\n      swap4\n      swap5\n      swap6\n      jump\t// out\n        /* \"#utility.yul\":7:84   */\n    tag_122:\n        /* \"#utility.yul\":44:51   */\n      0x00\n        /* \"#utility.yul\":73:78   */\n      dup2\n        /* \"#utility.yul\":62:78   */\n      swap1\n      pop\n        /* \"#utility.yul\":7:84   */\n      swap2\n      swap1\n      pop\n      jump\t// out\n        /* \"#utility.yul\":90:208   */\n    tag_123:\n        /* \"#utility.yul\":177:201   */\n      tag_155\n        /* \"#utility.yul\":195:200   */\n      dup2\n        /* \"#utility.yul\":177:201   */\n      tag_122\n      jump\t// in\n    tag_155:\n        /* \"#utility.yul\":172:175   */\n      dup3\n        /* \"#utility.yul\":165:202   */\n      mstore\n        /* \"#utility.yul\":90:208   */\n      pop\n      pop\n      jump\t// out\n        /* \"#utility.yul\":214:436   */\n    tag_21:\n        /* \"#utility.yul\":307:311   */\n      0x00\n        /* \"#utility.yul\":345:347   */\n      0x20\n        /* \"#utility.yul\":334:343   */\n      dup3\n        /* \"#utility.yul\":330:348   */\n      add\n        /* \"#utility.yul\":322:348   */\n      swap1\n      pop\n        /* \"#utility.yul\":358:429   */\n      tag_157\n        /* \"#utility.yul\":426:427   */\n      0x00\n        /* \"#utility.yul\":415:424   */\n      dup4\n        /* \"#utility.yul\":411:428   */\n      add\n        /* \"#utility.yul\":402:408   */\n      dup5\n        /* \"#utility.yul\":358:429   */\n      tag_123\n      jump\t// in\n    tag_157:\n        /* \"#utility.yul\":214:436   */\n      swap3\n      swap2\n      pop\n      pop\n      jump\t// out\n        /* \"#utility.yul\":523:640   */\n    tag_125:\n        /* \"#utility.yul\":632:633   */\n      0x00\n        /* \"#utility.yul\":629:630   */\n      dup1\n        /* \"#utility.yul\":622:634   */\n      revert\n        /* \"#utility.yul\":769:895   */\n    tag_127:\n        /* \"#utility.yul\":806:813   */\n      0x00\n        /* \"#utility.yul\":846:888   */\n      0xffffffffffffffffffffffffffffffffffffffff\n        /* \"#utility.yul\":839:844   */\n      dup3\n        /* \"#utility.yul\":835:889   */\n      and\n        /* \"#utility.yul\":824:889   */\n      swap1\n      pop\n        /* \"#utility.yul\":769:895   */\n      swap2\n      swap1\n      pop\n      jump\t// out\n        /* \"#utility.yul\":901:997   */\n    tag_128:\n        /* \"#utility.yul\":938:945   */\n      0x00\n        /* \"#utility.yul\":967:991   */\n      tag_163\n        /* \"#utility.yul\":985:990   */\n      dup3\n        /* \"#utility.yul\":967:991   */\n      tag_127\n      jump\t// in\n    tag_163:\n        /* \"#utility.yul\":956:991   */\n      swap1\n      pop\n        /* \"#utility.yul\":901:997   */\n      swap2\n      swap1\n      pop\n      jump\t// out\n        /* \"#utility.yul\":1003:1125   */\n    tag_129:\n        /* \"#utility.yul\":1076:1100   */\n      tag_165\n        /* \"#utility.yul\":1094:1099   */\n      dup2\n        /* \"#utility.yul\":1076:1100   */\n      tag_128\n      jump\t// in\n    tag_165:\n        /* \"#utility.yul\":1069:1074   */\n      dup2\n        /* \"#utility.yul\":1066:1101   */\n      eq\n        /* \"#utility.yul\":1056:1119   */\n      tag_166\n      jumpi\n        /* \"#utility.yul\":1115:1116   */\n      0x00\n        /* \"#utility.yul\":1112:1113   */\n      dup1\n        /* \"#utility.yul\":1105:1117   */\n      revert\n        /* \"#utility.yul\":1056:1119   */\n    tag_166:\n        /* \"#utility.yul\":1003:1125   */\n      pop\n      jump\t// out\n        /* \"#utility.yul\":1131:1270   */\n    tag_130:\n        /* \"#utility.yul\":1177:1182   */\n      0x00\n        /* \"#utility.yul\":1215:1221   */\n      dup2\n        /* \"#utility.yul\":1202:1222   */\n      calldataload\n        /* \"#utility.yul\":1193:1222   */\n      swap1\n      pop\n        /* \"#utility.yul\":1231:1264   */\n      tag_168\n        /* \"#utility.yul\":1258:1263   */\n      dup2\n        /* \"#utility.yul\":1231:1264   */\n      tag_129\n      jump\t// in\n    tag_168:\n        /* \"#utility.yul\":1131:1270   */\n      swap3\n      swap2\n      pop\n      pop\n      jump\t// out\n        /* \"#utility.yul\":1276:1605   */\n    tag_32:\n        /* \"#utility.yul\":1335:1341   */\n      0x00\n        /* \"#utility.yul\":1384:1386   */\n      0x20\n        /* \"#utility.yul\":1372:1381   */\n      dup3\n        /* \"#utility.yul\":1363:1370   */\n      dup5\n        /* \"#utility.yul\":1359:1382   */\n      sub\n        /* \"#utility.yul\":1355:1387   */\n      slt\n        /* \"#utility.yul\":1352:1471   */\n      iszero\n      tag_170\n      jumpi\n        /* \"#utility.yul\":1390:1469   */\n      tag_171\n      tag_125\n      jump\t// in\n    tag_171:\n        /* \"#utility.yul\":1352:1471   */\n    tag_170:\n        /* \"#utility.yul\":1510:1511   */\n      0x00\n        /* \"#utility.yul\":1535:1588   */\n      tag_172\n        /* \"#utility.yul\":1580:1587   */\n      dup5\n        /* \"#utility.yul\":1571:1577   */\n      dup3\n        /* \"#utility.yul\":1560:1569   */\n      dup6\n        /* \"#utility.yul\":1556:1578   */\n      add\n        /* \"#utility.yul\":1535:1588   */\n      tag_130\n      jump\t// in\n    tag_172:\n        /* \"#utility.yul\":1525:1588   */\n      swap2\n      pop\n        /* \"#utility.yul\":1481:1598   */\n      pop\n        /* \"#utility.yul\":1276:1605   */\n      swap3\n      swap2\n      pop\n      pop\n      jump\t// out\n        /* \"#utility.yul\":1611:1701   */\n    tag_131:\n        /* \"#utility.yul\":1645:1652   */\n      0x00\n        /* \"#utility.yul\":1688:1693   */\n      dup2\n        /* \"#utility.yul\":1681:1694   */\n      iszero\n        /* \"#utility.yul\":1674:1695   */\n      iszero\n        /* \"#utility.yul\":1663:1695   */\n      swap1\n      pop\n        /* \"#utility.yul\":1611:1701   */\n      swap2\n      swap1\n      pop\n      jump\t// out\n        /* \"#utility.yul\":1707:1816   */\n    tag_132:\n        /* \"#utility.yul\":1788:1809   */\n      tag_175\n        /* \"#utility.yul\":1803:1808   */\n      dup2\n        /* \"#utility.yul\":1788:1809   */\n      tag_131\n      jump\t// in\n    tag_175:\n        /* \"#utility.yul\":1783:1786   */\n      dup3\n        /* \"#utility.yul\":1776:1810   */\n      mstore\n        /* \"#utility.yul\":1707:1816   */\n      pop\n      pop\n      jump\t// out\n        /* \"#utility.yul\":1822:2032   */\n    tag_42:\n        /* \"#utility.yul\":1909:1913   */\n      0x00\n        /* \"#utility.yul\":1947:1949   */\n      0x20\n        /* \"#utility.yul\":1936:1945   */\n      dup3\n        /* \"#utility.yul\":1932:1950   */\n      add\n        /* \"#utility.yul\":1924:1950   */\n      swap1\n      pop\n        /* \"#utility.yul\":1960:2025   */\n      tag_177\n        /* \"#utility.yul\":2022:2023   */\n      0x00\n        /* \"#utility.yul\":2011:2020   */\n      dup4\n        /* \"#utility.yul\":2007:2024   */\n      add\n        /* \"#utility.yul\":1998:2004   */\n      dup5\n        /* \"#utility.yul\":1960:2025   */\n      tag_132\n      jump\t// in\n    tag_177:\n        /* \"#utility.yul\":1822:2032   */\n      swap3\n      swap2\n      pop\n      pop\n      jump\t// out\n        /* \"#utility.yul\":2038:2156   */\n    tag_133:\n        /* \"#utility.yul\":2125:2149   */\n      tag_179\n        /* \"#utility.yul\":2143:2148   */\n      dup2\n        /* \"#utility.yul\":2125:2149   */\n      tag_128\n      jump\t// in\n    tag_179:\n        /* \"#utility.yul\":2120:2123   */\n      dup3\n        /* \"#utility.yul\":2113:2150   */\n      mstore\n        /* \"#utility.yul\":2038:2156   */\n      pop\n      pop\n      jump\t// out\n        /* \"#utility.yul\":2162:2384   */\n    tag_47:\n        /* \"#utility.yul\":2255:2259   */\n      0x00\n        /* \"#utility.yul\":2293:2295   */\n      0x20\n        /* \"#utility.yul\":2282:2291   */\n      dup3\n        /* \"#utility.yul\":2278:2296   */\n      add\n        /* \"#utility.yul\":2270:2296   */\n      swap1\n      pop\n        /* \"#utility.yul\":2306:2377   */\n      tag_181\n        /* \"#utility.yul\":2374:2375   */\n      0x00\n        /* \"#utility.yul\":2363:2372   */\n      dup4\n        /* \"#utility.yul\":2359:2376   */\n      add\n        /* \"#utility.yul\":2350:2356   */\n      dup5\n        /* \"#utility.yul\":2306:2377   */\n      tag_133\n      jump\t// in\n    tag_181:\n        /* \"#utility.yul\":2162:2384   */\n      swap3\n      swap2\n      pop\n      pop\n      jump\t// out\n        /* \"#utility.yul\":2390:3141   */\n    tag_70:\n        /* \"#utility.yul\":2611:2615   */\n      0x00\n        /* \"#utility.yul\":2649:2652   */\n      0xc0\n        /* \"#utility.yul\":2638:2647   */\n      dup3\n        /* \"#utility.yul\":2634:2653   */\n      add\n        /* \"#utility.yul\":2626:2653   */\n      swap1\n      pop\n        /* \"#utility.yul\":2663:2734   */\n      tag_183\n        /* \"#utility.yul\":2731:2732   */\n      0x00\n        /* \"#utility.yul\":2720:2729   */\n      dup4\n        /* \"#utility.yul\":2716:2733   */\n      add\n        /* \"#utility.yul\":2707:2713   */\n      dup10\n        /* \"#utility.yul\":2663:2734   */\n      tag_123\n      jump\t// in\n    tag_183:\n        /* \"#utility.yul\":2744:2816   */\n      tag_184\n        /* \"#utility.yul\":2812:2814   */\n      0x20\n        /* \"#utility.yul\":2801:2810   */\n      dup4\n        /* \"#utility.yul\":2797:2815   */\n      add\n        /* \"#utility.yul\":2788:2794   */\n      dup9\n        /* \"#utility.yul\":2744:2816   */\n      tag_123\n      jump\t// in\n    tag_184:\n        /* \"#utility.yul\":2826:2898   */\n      tag_185\n        /* \"#utility.yul\":2894:2896   */\n      0x40\n        /* \"#utility.yul\":2883:2892   */\n      dup4\n        /* \"#utility.yul\":2879:2897   */\n      add\n        /* \"#utility.yul\":2870:2876   */\n      dup8\n        /* \"#utility.yul\":2826:2898   */\n      tag_123\n      jump\t// in\n    tag_185:\n        /* \"#utility.yul\":2908:2980   */\n      tag_186\n        /* \"#utility.yul\":2976:2978   */\n      0x60\n        /* \"#utility.yul\":2965:2974   */\n      dup4\n        /* \"#utility.yul\":2961:2979   */\n      add\n        /* \"#utility.yul\":2952:2958   */\n      dup7\n        /* \"#utility.yul\":2908:2980   */\n      tag_123\n      jump\t// in\n    tag_186:\n        /* \"#utility.yul\":2990:3057   */\n      tag_187\n        /* \"#utility.yul\":3052:3055   */\n      0x80\n        /* \"#utility.yul\":3041:3050   */\n      dup4\n        /* \"#utility.yul\":3037:3056   */\n      add\n        /* \"#utility.yul\":3028:3034   */\n      dup6\n        /* \"#utility.yul\":2990:3057   */\n      tag_132\n      jump\t// in\n    tag_187:\n        /* \"#utility.yul\":3067:3134   */\n      tag_188\n        /* \"#utility.yul\":3129:3132   */\n      0xa0\n        /* \"#utility.yul\":3118:3127   */\n      dup4\n        /* \"#utility.yul\":3114:3133   */\n      add\n        /* \"#utility.yul\":3105:3111   */\n      dup5\n        /* \"#utility.yul\":3067:3134   */\n      tag_132\n      jump\t// in\n    tag_188:\n        /* \"#utility.yul\":2390:3141   */\n      swap8\n      swap7\n      pop\n      pop\n      pop\n      pop\n      pop\n      pop\n      pop\n      jump\t// out\n        /* \"#utility.yul\":3147:3316   */\n    tag_134:\n        /* \"#utility.yul\":3231:3242   */\n      0x00\n        /* \"#utility.yul\":3265:3271   */\n      dup3\n        /* \"#utility.yul\":3260:3263   */\n      dup3\n        /* \"#utility.yul\":3253:3272   */\n      mstore\n        /* \"#utility.yul\":3305:3309   */\n      0x20\n        /* \"#utility.yul\":3300:3303   */\n      dup3\n        /* \"#utility.yul\":3296:3310   */\n      add\n        /* \"#utility.yul\":3281:3310   */\n      swap1\n      pop\n        /* \"#utility.yul\":3147:3316   */\n      swap3\n      swap2\n      pop\n      pop\n      jump\t// out\n        /* \"#utility.yul\":3322:3499   */\n    tag_135:\n        /* \"#utility.yul\":3462:3491   */\n      0x4f6e6c79206f776e65722063616e20706572666f726d20746869730000000000\n        /* \"#utility.yul\":3458:3459   */\n      0x00\n        /* \"#utility.yul\":3450:3456   */\n      dup3\n        /* \"#utility.yul\":3446:3460   */\n      add\n        /* \"#utility.yul\":3439:3492   */\n      mstore\n        /* \"#utility.yul\":3322:3499   */\n      pop\n      jump\t// out\n        /* \"#utility.yul\":3505:3871   */\n    tag_136:\n        /* \"#utility.yul\":3647:3650   */\n      0x00\n        /* \"#utility.yul\":3668:3735   */\n      tag_192\n        /* \"#utility.yul\":3732:3734   */\n      0x1b\n        /* \"#utility.yul\":3727:3730   */\n      dup4\n        /* \"#utility.yul\":3668:3735   */\n      tag_134\n      jump\t// in\n    tag_192:\n        /* \"#utility.yul\":3661:3735   */\n      swap2\n      pop\n        /* \"#utility.yul\":3744:3837   */\n      tag_193\n        /* \"#utility.yul\":3833:3836   */\n      dup3\n        /* \"#utility.yul\":3744:3837   */\n      tag_135\n      jump\t// in\n    tag_193:\n        /* \"#utility.yul\":3862:3864   */\n      0x20\n        /* \"#utility.yul\":3857:3860   */\n      dup3\n        /* \"#utility.yul\":3853:3865   */\n      add\n        /* \"#utility.yul\":3846:3865   */\n      swap1\n      pop\n        /* \"#utility.yul\":3505:3871   */\n      swap2\n      swap1\n      pop\n      jump\t// out\n        /* \"#utility.yul\":3877:4296   */\n    tag_74:\n        /* \"#utility.yul\":4043:4047   */\n      0x00\n        /* \"#utility.yul\":4081:4083   */\n      0x20\n        /* \"#utility.yul\":4070:4079   */\n      dup3\n        /* \"#utility.yul\":4066:4084   */\n      add\n        /* \"#utility.yul\":4058:4084   */\n      swap1\n      pop\n        /* \"#utility.yul\":4130:4139   */\n      dup2\n        /* \"#utility.yul\":4124:4128   */\n      dup2\n        /* \"#utility.yul\":4120:4140   */\n      sub\n        /* \"#utility.yul\":4116:4117   */\n      0x00\n        /* \"#utility.yul\":4105:4114   */\n      dup4\n        /* \"#utility.yul\":4101:4118   */\n      add\n        /* \"#utility.yul\":4094:4141   */\n      mstore\n        /* \"#utility.yul\":4158:4289   */\n      tag_195\n        /* \"#utility.yul\":4284:4288   */\n      dup2\n        /* \"#utility.yul\":4158:4289   */\n      tag_136\n      jump\t// in\n    tag_195:\n        /* \"#utility.yul\":4150:4289   */\n      swap1\n      pop\n        /* \"#utility.yul\":3877:4296   */\n      swap2\n      swap1\n      pop\n      jump\t// out\n        /* \"#utility.yul\":4302:4476   */\n    tag_137:\n        /* \"#utility.yul\":4442:4468   */\n      0x446561646c696e65206e6f742072656163686564207965740000000000000000\n        /* \"#utility.yul\":4438:4439   */\n      0x00\n        /* \"#utility.yul\":4430:4436   */\n      dup3\n        /* \"#utility.yul\":4426:4440   */\n      add\n        /* \"#utility.yul\":4419:4469   */\n      mstore\n        /* \"#utility.yul\":4302:4476   */\n      pop\n      jump\t// out\n        /* \"#utility.yul\":4482:4848   */\n    tag_138:\n        /* \"#utility.yul\":4624:4627   */\n      0x00\n        /* \"#utility.yul\":4645:4712   */\n      tag_198\n        /* \"#utility.yul\":4709:4711   */\n      0x18\n        /* \"#utility.yul\":4704:4707   */\n      dup4\n        /* \"#utility.yul\":4645:4712   */\n      tag_134\n      jump\t// in\n    tag_198:\n        /* \"#utility.yul\":4638:4712   */\n      swap2\n      pop\n        /* \"#utility.yul\":4721:4814   */\n      tag_199\n        /* \"#utility.yul\":4810:4813   */\n      dup3\n        /* \"#utility.yul\":4721:4814   */\n      tag_137\n      jump\t// in\n    tag_199:\n        /* \"#utility.yul\":4839:4841   */\n      0x20\n        /* \"#utility.yul\":4834:4837   */\n      dup3\n        /* \"#utility.yul\":4830:4842   */\n      add\n        /* \"#utility.yul\":4823:4842   */\n      swap1\n      pop\n        /* \"#utility.yul\":4482:4848   */\n      swap2\n      swap1\n      pop\n      jump\t// out\n        /* \"#utility.yul\":4854:5273   */\n    tag_78:\n        /* \"#utility.yul\":5020:5024   */\n      0x00\n        /* \"#utility.yul\":5058:5060   */\n      0x20\n        /* \"#utility.yul\":5047:5056   */\n      dup3\n        /* \"#utility.yul\":5043:5061   */\n      add\n        /* \"#utility.yul\":5035:5061   */\n      swap1\n      pop\n        /* \"#utility.yul\":5107:5116   */\n      dup2\n        /* \"#utility.yul\":5101:5105   */\n      dup2\n        /* \"#utility.yul\":5097:5117   */\n      sub\n        /* \"#utility.yul\":5093:5094   */\n      0x00\n        /* \"#utility.yul\":5082:5091   */\n      dup4\n        /* \"#utility.yul\":5078:5095   */\n      add\n        /* \"#utility.yul\":5071:5118   */\n      mstore\n        /* \"#utility.yul\":5135:5266   */\n      tag_201\n        /* \"#utility.yul\":5261:5265   */\n      dup2\n        /* \"#utility.yul\":5135:5266   */\n      tag_138\n      jump\t// in\n    tag_201:\n        /* \"#utility.yul\":5127:5266   */\n      swap1\n      pop\n        /* \"#utility.yul\":4854:5273   */\n      swap2\n      swap1\n      pop\n      jump\t// out\n        /* \"#utility.yul\":5279:5445   */\n    tag_139:\n        /* \"#utility.yul\":5419:5437   */\n      0x476f616c206e6f74207265616368656400000000000000000000000000000000\n        /* \"#utility.yul\":5415:5416   */\n      0x00\n        /* \"#utility.yul\":5407:5413   */\n      dup3\n        /* \"#utility.yul\":5403:5417   */\n      add\n        /* \"#utility.yul\":5396:5438   */\n      mstore\n        /* \"#utility.yul\":5279:5445   */\n      pop\n      jump\t// out\n        /* \"#utility.yul\":5451:5817   */\n    tag_140:\n        /* \"#utility.yul\":5593:5596   */\n      0x00\n        /* \"#utility.yul\":5614:5681   */\n      tag_204\n        /* \"#utility.yul\":5678:5680   */\n      0x10\n        /* \"#utility.yul\":5673:5676   */\n      dup4\n        /* \"#utility.yul\":5614:5681   */\n      tag_134\n      jump\t// in\n    tag_204:\n        /* \"#utility.yul\":5607:5681   */\n      swap2\n      pop\n        /* \"#utility.yul\":5690:5783   */\n      tag_205\n        /* \"#utility.yul\":5779:5782   */\n      dup3\n        /* \"#utility.yul\":5690:5783   */\n      tag_139\n      jump\t// in\n    tag_205:\n        /* \"#utility.yul\":5808:5810   */\n      0x20\n        /* \"#utility.yul\":5803:5806   */\n      dup3\n        /* \"#utility.yul\":5799:5811   */\n      add\n        /* \"#utility.yul\":5792:5811   */\n      swap1\n      pop\n        /* \"#utility.yul\":5451:5817   */\n      swap2\n      swap1\n      pop\n      jump\t// out\n        /* \"#utility.yul\":5823:6242   */\n    tag_82:\n        /* \"#utility.yul\":5989:5993   */\n      0x00\n        /* \"#utility.yul\":6027:6029   */\n      0x20\n        /* \"#utility.yul\":6016:6025   */\n      dup3\n        /* \"#utility.yul\":6012:6030   */\n      add\n        /* \"#utility.yul\":6004:6030   */\n      swap1\n      pop\n        /* \"#utility.yul\":6076:6085   */\n      dup2\n        /* \"#utility.yul\":6070:6074   */\n      dup2\n        /* \"#utility.yul\":6066:6086   */\n      sub\n        /* \"#utility.yul\":6062:6063   */\n      0x00\n        /* \"#utility.yul\":6051:6060   */\n      dup4\n        /* \"#utility.yul\":6047:6064   */\n      add\n        /* \"#utility.yul\":6040:6087   */\n      mstore\n        /* \"#utility.yul\":6104:6235   */\n      tag_207\n        /* \"#utility.yul\":6230:6234   */\n      dup2\n        /* \"#utility.yul\":6104:6235   */\n      tag_140\n      jump\t// in\n    tag_207:\n        /* \"#utility.yul\":6096:6235   */\n      swap1\n      pop\n        /* \"#utility.yul\":5823:6242   */\n      swap2\n      swap1\n      pop\n      jump\t// out\n        /* \"#utility.yul\":6248:6415   */\n    tag_141:\n        /* \"#utility.yul\":6388:6407   */\n      0x416c72656164792077697468647261776e000000000000000000000000000000\n        /* \"#utility.yul\":6384:6385   */\n      0x00\n        /* \"#utility.yul\":6376:6382   */\n      dup3\n        /* \"#utility.yul\":6372:6386   */\n      add\n        /* \"#utility.yul\":6365:6408   */\n      mstore\n        /* \"#utility.yul\":6248:6415   */\n      pop\n      jump\t// out\n        /* \"#utility.yul\":6421:6787   */\n    tag_142:\n        /* \"#utility.yul\":6563:6566   */\n      0x00\n        /* \"#utility.yul\":6584:6651   */\n      tag_210\n        /* \"#utility.yul\":6648:6650   */\n      0x11\n        /* \"#utility.yul\":6643:6646   */\n      dup4\n        /* \"#utility.yul\":6584:6651   */\n      tag_134\n      jump\t// in\n    tag_210:\n        /* \"#utility.yul\":6577:6651   */\n      swap2\n      pop\n        /* \"#utility.yul\":6660:6753   */\n      tag_211\n        /* \"#utility.yul\":6749:6752   */\n      dup3\n        /* \"#utility.yul\":6660:6753   */\n      tag_141\n      jump\t// in\n    tag_211:\n        /* \"#utility.yul\":6778:6780   */\n      0x20\n        /* \"#utility.yul\":6773:6776   */\n      dup3\n        /* \"#utility.yul\":6769:6781   */\n      add\n        /* \"#utility.yul\":6762:6781   */\n      swap1\n      pop\n        /* \"#utility.yul\":6421:6787   */\n      swap2\n      swap1\n      pop\n      jump\t// out\n        /* \"#utility.yul\":6793:7212   */\n    tag_85:\n        /* \"#utility.yul\":6959:6963   */\n      0x00\n        /* \"#utility.yul\":6997:6999   */\n      0x20\n        /* \"#utility.yul\":6986:6995   */\n      dup3\n        /* \"#utility.yul\":6982:7000   */\n      add\n        /* \"#utility.yul\":6974:7000   */\n      swap1\n      pop\n        /* \"#utility.yul\":7046:7055   */\n      dup2\n        /* \"#utility.yul\":7040:7044   */\n      dup2\n        /* \"#utility.yul\":7036:7056   */\n      sub\n        /* \"#utility.yul\":7032:7033   */\n      0x00\n        /* \"#utility.yul\":7021:7030   */\n      dup4\n        /* \"#utility.yul\":7017:7034   */\n      add\n        /* \"#utility.yul\":7010:7057   */\n      mstore\n        /* \"#utility.yul\":7074:7205   */\n      tag_213\n        /* \"#utility.yul\":7200:7204   */\n      dup2\n        /* \"#utility.yul\":7074:7205   */\n      tag_142\n      jump\t// in\n    tag_213:\n        /* \"#utility.yul\":7066:7205   */\n      swap1\n      pop\n        /* \"#utility.yul\":6793:7212   */\n      swap2\n      swap1\n      pop\n      jump\t// out\n        /* \"#utility.yul\":7218:7442   */\n    tag_143:\n        /* \"#utility.yul\":7358:7392   */\n      0x476f616c2077617320726561636865642c20726566756e64206e6f7420706f73\n        /* \"#utility.yul\":7354:7355   */\n      0x00\n        /* \"#utility.yul\":7346:7352   */\n      dup3\n        /* \"#utility.yul\":7342:7356   */\n      add\n        /* \"#utility.yul\":7335:7393   */\n      mstore\n        /* \"#utility.yul\":7427:7434   */\n      0x7369626c65000000000000000000000000000000000000000000000000000000\n        /* \"#utility.yul\":7422:7424   */\n      0x20\n        /* \"#utility.yul\":7414:7420   */\n      dup3\n        /* \"#utility.yul\":7410:7425   */\n      add\n        /* \"#utility.yul\":7403:7435   */\n      mstore\n        /* \"#utility.yul\":7218:7442   */\n      pop\n      jump\t// out\n        /* \"#utility.yul\":7448:7814   */\n    tag_144:\n        /* \"#utility.yul\":7590:7593   */\n      0x00\n        /* \"#utility.yul\":7611:7678   */\n      tag_216\n        /* \"#utility.yul\":7675:7677   */\n      0x25\n        /* \"#utility.yul\":7670:7673   */\n      dup4\n        /* \"#utility.yul\":7611:7678   */\n      tag_134\n      jump\t// in\n    tag_216:\n        /* \"#utility.yul\":7604:7678   */\n      swap2\n      pop\n        /* \"#utility.yul\":7687:7780   */\n      tag_217\n        /* \"#utility.yul\":7776:7779   */\n      dup3\n        /* \"#utility.yul\":7687:7780   */\n      tag_143\n      jump\t// in\n    tag_217:\n        /* \"#utility.yul\":7805:7807   */\n      0x40\n        /* \"#utility.yul\":7800:7803   */\n      dup3\n        /* \"#utility.yul\":7796:7808   */\n      add\n        /* \"#utility.yul\":7789:7808   */\n      swap1\n      pop\n        /* \"#utility.yul\":7448:7814   */\n      swap2\n      swap1\n      pop\n      jump\t// out\n        /* \"#utility.yul\":7820:8239   */\n    tag_94:\n        /* \"#utility.yul\":7986:7990   */\n      0x00\n        /* \"#utility.yul\":8024:8026   */\n      0x20\n        /* \"#utility.yul\":8013:8022   */\n      dup3\n        /* \"#utility.yul\":8009:8027   */\n      add\n        /* \"#utility.yul\":8001:8027   */\n      swap1\n      pop\n        /* \"#utility.yul\":8073:8082   */\n      dup2\n        /* \"#utility.yul\":8067:8071   */\n      dup2\n        /* \"#utility.yul\":8063:8083   */\n      sub\n        /* \"#utility.yul\":8059:8060   */\n      0x00\n        /* \"#utility.yul\":8048:8057   */\n      dup4\n        /* \"#utility.yul\":8044:8061   */\n      add\n        /* \"#utility.yul\":8037:8084   */\n      mstore\n        /* \"#utility.yul\":8101:8232   */\n      tag_219\n        /* \"#utility.yul\":8227:8231   */\n      dup2\n        /* \"#utility.yul\":8101:8232   */\n      tag_144\n      jump\t// in\n    tag_219:\n        /* \"#utility.yul\":8093:8232   */\n      swap1\n      pop\n        /* \"#utility.yul\":7820:8239   */\n      swap2\n      swap1\n      pop\n      jump\t// out\n        /* \"#utility.yul\":8245:8417   */\n    tag_145:\n        /* \"#utility.yul\":8385:8409   */\n      0x4e6f20636f6e747269627574696f6e7320666f756e6400000000000000000000\n        /* \"#utility.yul\":8381:8382   */\n      0x00\n        /* \"#utility.yul\":8373:8379   */\n      dup3\n        /* \"#utility.yul\":8369:8383   */\n      add\n        /* \"#utility.yul\":8362:8410   */\n      mstore\n        /* \"#utility.yul\":8245:8417   */\n      pop\n      jump\t// out\n        /* \"#utility.yul\":8423:8789   */\n    tag_146:\n        /* \"#utility.yul\":8565:8568   */\n      0x00\n        /* \"#utility.yul\":8586:8653   */\n      tag_222\n        /* \"#utility.yul\":8650:8652   */\n      0x16\n        /* \"#utility.yul\":8645:8648   */\n      dup4\n        /* \"#utility.yul\":8586:8653   */\n      tag_134\n      jump\t// in\n    tag_222:\n        /* \"#utility.yul\":8579:8653   */\n      swap2\n      pop\n        /* \"#utility.yul\":8662:8755   */\n      tag_223\n        /* \"#utility.yul\":8751:8754   */\n      dup3\n        /* \"#utility.yul\":8662:8755   */\n      tag_145\n      jump\t// in\n    tag_223:\n        /* \"#utility.yul\":8780:8782   */\n      0x20\n        /* \"#utility.yul\":8775:8778   */\n      dup3\n        /* \"#utility.yul\":8771:8783   */\n      add\n        /* \"#utility.yul\":8764:8783   */\n      swap1\n      pop\n        /* \"#utility.yul\":8423:8789   */\n      swap2\n      swap1\n      pop\n      jump\t// out\n        /* \"#utility.yul\":8795:9214   */\n    tag_97:\n        /* \"#utility.yul\":8961:8965   */\n      0x00\n        /* \"#utility.yul\":8999:9001   */\n      0x20\n        /* \"#utility.yul\":8988:8997   */\n      dup3\n        /* \"#utility.yul\":8984:9002   */\n      add\n        /* \"#utility.yul\":8976:9002   */\n      swap1\n      pop\n        /* \"#utility.yul\":9048:9057   */\n      dup2\n        /* \"#utility.yul\":9042:9046   */\n      dup2\n        /* \"#utility.yul\":9038:9058   */\n      sub\n        /* \"#utility.yul\":9034:9035   */\n      0x00\n        /* \"#utility.yul\":9023:9032   */\n      dup4\n        /* \"#utility.yul\":9019:9036   */\n      add\n        /* \"#utility.yul\":9012:9059   */\n      mstore\n        /* \"#utility.yul\":9076:9207   */\n      tag_225\n        /* \"#utility.yul\":9202:9206   */\n      dup2\n        /* \"#utility.yul\":9076:9207   */\n      tag_146\n      jump\t// in\n    tag_225:\n        /* \"#utility.yul\":9068:9207   */\n      swap1\n      pop\n        /* \"#utility.yul\":8795:9214   */\n      swap2\n      swap1\n      pop\n      jump\t// out\n        /* \"#utility.yul\":9220:9552   */\n    tag_101:\n        /* \"#utility.yul\":9341:9345   */\n      0x00\n        /* \"#utility.yul\":9379:9381   */\n      0x40\n        /* \"#utility.yul\":9368:9377   */\n      dup3\n        /* \"#utility.yul\":9364:9382   */\n      add\n        /* \"#utility.yul\":9356:9382   */\n      swap1\n      pop\n        /* \"#utility.yul\":9392:9463   */\n      tag_227\n        /* \"#utility.yul\":9460:9461   */\n      0x00\n        /* \"#utility.yul\":9449:9458   */\n      dup4\n        /* \"#utility.yul\":9445:9462   */\n      add\n        /* \"#utility.yul\":9436:9442   */\n      dup6\n        /* \"#utility.yul\":9392:9463   */\n      tag_133\n      jump\t// in\n    tag_227:\n        /* \"#utility.yul\":9473:9545   */\n      tag_228\n        /* \"#utility.yul\":9541:9543   */\n      0x20\n        /* \"#utility.yul\":9530:9539   */\n      dup4\n        /* \"#utility.yul\":9526:9544   */\n      add\n        /* \"#utility.yul\":9517:9523   */\n      dup5\n        /* \"#utility.yul\":9473:9545   */\n      tag_123\n      jump\t// in\n    tag_228:\n        /* \"#utility.yul\":9220:9552   */\n      swap4\n      swap3\n      pop\n      pop\n      pop\n      jump\t// out\n        /* \"#utility.yul\":9558:9723   */\n    tag_147:\n        /* \"#utility.yul\":9698:9715   */\n      0x446561646c696e65207061737365640000000000000000000000000000000000\n        /* \"#utility.yul\":9694:9695   */\n      0x00\n        /* \"#utility.yul\":9686:9692   */\n      dup3\n        /* \"#utility.yul\":9682:9696   */\n      add\n        /* \"#utility.yul\":9675:9716   */\n      mstore\n        /* \"#utility.yul\":9558:9723   */\n      pop\n      jump\t// out\n        /* \"#utility.yul\":9729:10095   */\n    tag_148:\n        /* \"#utility.yul\":9871:9874   */\n      0x00\n        /* \"#utility.yul\":9892:9959   */\n      tag_231\n        /* \"#utility.yul\":9956:9958   */\n      0x0f\n        /* \"#utility.yul\":9951:9954   */\n      dup4\n        /* \"#utility.yul\":9892:9959   */\n      tag_134\n      jump\t// in\n    tag_231:\n        /* \"#utility.yul\":9885:9959   */\n      swap2\n      pop\n        /* \"#utility.yul\":9968:10061   */\n      tag_232\n        /* \"#utility.yul\":10057:10060   */\n      dup3\n        /* \"#utility.yul\":9968:10061   */\n      tag_147\n      jump\t// in\n    tag_232:\n        /* \"#utility.yul\":10086:10088   */\n      0x20\n        /* \"#utility.yul\":10081:10084   */\n      dup3\n        /* \"#utility.yul\":10077:10089   */\n      add\n        /* \"#utility.yul\":10070:10089   */\n      swap1\n      pop\n        /* \"#utility.yul\":9729:10095   */\n      swap2\n      swap1\n      pop\n      jump\t// out\n        /* \"#utility.yul\":10101:10520   */\n    tag_106:\n        /* \"#utility.yul\":10267:10271   */\n      0x00\n        /* \"#utility.yul\":10305:10307   */\n      0x20\n        /* \"#utility.yul\":10294:10303   */\n      dup3\n        /* \"#utility.yul\":10290:10308   */\n      add\n        /* \"#utility.yul\":10282:10308   */\n      swap1\n      pop\n        /* \"#utility.yul\":10354:10363   */\n      dup2\n        /* \"#utility.yul\":10348:10352   */\n      dup2\n        /* \"#utility.yul\":10344:10364   */\n      sub\n        /* \"#utility.yul\":10340:10341   */\n      0x00\n        /* \"#utility.yul\":10329:10338   */\n      dup4\n        /* \"#utility.yul\":10325:10342   */\n      add\n        /* \"#utility.yul\":10318:10365   */\n      mstore\n        /* \"#utility.yul\":10382:10513   */\n      tag_234\n        /* \"#utility.yul\":10508:10512   */\n      dup2\n        /* \"#utility.yul\":10382:10513   */\n      tag_148\n      jump\t// in\n    tag_234:\n        /* \"#utility.yul\":10374:10513   */\n      swap1\n      pop\n        /* \"#utility.yul\":10101:10520   */\n      swap2\n      swap1\n      pop\n      jump\t// out\n        /* \"#utility.yul\":10526:10708   */\n    tag_149:\n        /* \"#utility.yul\":10666:10700   */\n      0x4d696e696d756d20636f6e747269627574696f6e20697320302e303120455448\n        /* \"#utility.yul\":10662:10663   */\n      0x00\n        /* \"#utility.yul\":10654:10660   */\n      dup3\n        /* \"#utility.yul\":10650:10664   */\n      add\n        /* \"#utility.yul\":10643:10701   */\n      mstore\n        /* \"#utility.yul\":10526:10708   */\n      pop\n      jump\t// out\n        /* \"#utility.yul\":10714:11080   */\n    tag_150:\n        /* \"#utility.yul\":10856:10859   */\n      0x00\n        /* \"#utility.yul\":10877:10944   */\n      tag_237\n        /* \"#utility.yul\":10941:10943   */\n      0x20\n        /* \"#utility.yul\":10936:10939   */\n      dup4\n        /* \"#utility.yul\":10877:10944   */\n      tag_134\n      jump\t// in\n    tag_237:\n        /* \"#utility.yul\":10870:10944   */\n      swap2\n      pop\n        /* \"#utility.yul\":10953:11046   */\n      tag_238\n        /* \"#utility.yul\":11042:11045   */\n      dup3\n        /* \"#utility.yul\":10953:11046   */\n      tag_149\n      jump\t// in\n    tag_238:\n        /* \"#utility.yul\":11071:11073   */\n      0x20\n        /* \"#utility.yul\":11066:11069   */\n      dup3\n        /* \"#utility.yul\":11062:11074   */\n      add\n        /* \"#utility.yul\":11055:11074   */\n      swap1\n      pop\n        /* \"#utility.yul\":10714:11080   */\n      swap2\n      swap1\n      pop\n      jump\t// out\n        /* \"#utility.yul\":11086:11505   */\n    tag_110:\n        /* \"#utility.yul\":11252:11256   */\n      0x00\n        /* \"#utility.yul\":11290:11292   */\n      0x20\n        /* \"#utility.yul\":11279:11288   */\n      dup3\n        /* \"#utility.yul\":11275:11293   */\n      add\n        /* \"#utility.yul\":11267:11293   */\n      swap1\n      pop\n        /* \"#utility.yul\":11339:11348   */\n      dup2\n        /* \"#utility.yul\":11333:11337   */\n      dup2\n        /* \"#utility.yul\":11329:11349   */\n      sub\n        /* \"#utility.yul\":11325:11326   */\n      0x00\n        /* \"#utility.yul\":11314:11323   */\n      dup4\n        /* \"#utility.yul\":11310:11327   */\n      add\n        /* \"#utility.yul\":11303:11350   */\n      mstore\n        /* \"#utility.yul\":11367:11498   */\n      tag_240\n        /* \"#utility.yul\":11493:11497   */\n      dup2\n        /* \"#utility.yul\":11367:11498   */\n      tag_150\n      jump\t// in\n    tag_240:\n        /* \"#utility.yul\":11359:11498   */\n      swap1\n      pop\n        /* \"#utility.yul\":11086:11505   */\n      swap2\n      swap1\n      pop\n      jump\t// out\n        /* \"#utility.yul\":11511:11691   */\n    tag_151:\n        /* \"#utility.yul\":11559:11636   */\n      0x4e487b7100000000000000000000000000000000000000000000000000000000\n        /* \"#utility.yul\":11556:11557   */\n      0x00\n        /* \"#utility.yul\":11549:11637   */\n      mstore\n        /* \"#utility.yul\":11656:11660   */\n      0x11\n        /* \"#utility.yul\":11653:11654   */\n      0x04\n        /* \"#utility.yul\":11646:11661   */\n      mstore\n        /* \"#utility.yul\":11680:11684   */\n      0x24\n        /* \"#utility.yul\":11677:11678   */\n      0x00\n        /* \"#utility.yul\":11670:11685   */\n      revert\n        /* \"#utility.yul\":11697:11930   */\n    tag_113:\n        /* \"#utility.yul\":11736:11739   */\n      0x00\n        /* \"#utility.yul\":11759:11783   */\n      tag_243\n        /* \"#utility.yul\":11777:11782   */\n      dup3\n        /* \"#utility.yul\":11759:11783   */\n      tag_122\n      jump\t// in\n    tag_243:\n        /* \"#utility.yul\":11750:11783   */\n      swap2\n      pop\n        /* \"#utility.yul\":11805:11871   */\n      0xffffffffffffffffffffffffffffffffffffffffffffffffffffffffffffffff\n        /* \"#utility.yul\":11798:11803   */\n      dup3\n        /* \"#utility.yul\":11795:11872   */\n      sub\n        /* \"#utility.yul\":11792:11895   */\n      tag_244\n      jumpi\n        /* \"#utility.yul\":11875:11893   */\n      tag_245\n      tag_151\n      jump\t// in\n    tag_245:\n        /* \"#utility.yul\":11792:11895   */\n    tag_244:\n        /* \"#utility.yul\":11922:11923   */\n      0x01\n        /* \"#utility.yul\":11915:11920   */\n      dup3\n        /* \"#utility.yul\":11911:11924   */\n      add\n        /* \"#utility.yul\":11904:11924   */\n      swap1\n      pop\n        /* \"#utility.yul\":11697:11930   */\n      swap2\n      swap1\n      pop\n      jump\t// out\n        /* \"#utility.yul\":11936:12127   */\n    tag_115:\n        /* \"#utility.yul\":11976:11979   */\n      0x00\n        /* \"#utility.yul\":11995:12015   */\n      tag_247\n        /* \"#utility.yul\":12013:12014   */\n      dup3\n        /* \"#utility.yul\":11995:12015   */\n      tag_122\n      jump\t// in\n    tag_247:\n        /* \"#utility.yul\":11990:12015   */\n      swap2\n      pop\n        /* \"#utility.yul\":12029:12049   */\n      tag_248\n        /* \"#utility.yul\":12047:12048   */\n      dup4\n        /* \"#utility.yul\":12029:12049   */\n      tag_122\n      jump\t// in\n    tag_248:\n        /* \"#utility.yul\":12024:12049   */\n      swap3\n      pop\n        /* \"#utility.yul\":12072:12073   */\n      dup3\n        /* \"#utility.yul\":12069:12070   */\n      dup3\n        /* \"#utility.yul\":12065:12074   */\n      add\n        /* \"#utility.yul\":12058:12074   */\n      swap1\n      pop\n        /* \"#utility.yul\":12093:12096   */\n      dup1\n        /* \"#utility.yul\":12090:12091   */\n      dup3\n        /* \"#utility.yul\":12087:12097   */\n      gt\n        /* \"#utility.yul\":12084:12120   */\n      iszero\n      tag_249\n      jumpi\n        /* \"#utility.yul\":12100:12118   */\n      tag_250\n      tag_151\n      jump\t// in\n    tag_250:\n        /* \"#utility.yul\":12084:12120   */\n    tag_249:\n        /* \"#utility.yul\":11936:12127   */\n      swap3\n      swap2\n      pop\n      pop\n      jump\t// out\n\n    auxdata: 0xa264697066735822122035ec845742a6216c56533d49aecb787001266d59e0502d76131c7cf45a4cc11e64736f6c634300081a0033\n}\n",
				"bytecode": {
					"linkReferences": {},
					"object": "608060405234801561001057600080fd5b506040516111ae3803806111ae833981810160405281019061003291906100d9565b336000806101000a81548173ffffffffffffffffffffffffffffffffffffffff021916908373ffffffffffffffffffffffffffffffffffffffff16021790555081600181905550603c816100869190610148565b42610091919061018a565b60028190555050506101be565b600080fd5b6000819050919050565b6100b6816100a3565b81146100c157600080fd5b50565b6000815190506100d3816100ad565b92915050565b600080604083850312156100f0576100ef61009e565b5b60006100fe858286016100c4565b925050602061010f858286016100c4565b9150509250929050565b7f4e487b7100000000000000000000000000000000000000000000000000000000600052601160045260246000fd5b6000610153826100a3565b915061015e836100a3565b925082820261016c816100a3565b9150828204841483151761018357610182610119565b5b5092915050565b6000610195826100a3565b91506101a0836100a3565b92508282019050808211156101b8576101b7610119565b5b92915050565b610fe1806101cd6000396000f3fe6080604052600436106100c25760003560e01c80638da5cb5b1161007f578063c80ec52211610059578063c80ec52214610234578063d7bb99ba1461025f578063ecfd892814610269578063fbbf93a014610294576100c2565b80638da5cb5b146101b3578063c59ee1dc146101de578063c71daccb14610209576100c2565b806329dcb0cf146100c75780633ccfd60b146100f2578063401938831461010957806342e94c9014610134578063590e1ae3146101715780637d3d652214610188575b600080fd5b3480156100d357600080fd5b506100dc6102c4565b6040516100e991906109d4565b60405180910390f35b3480156100fe57600080fd5b506101076102ca565b005b34801561011557600080fd5b5061011e6104c0565b60405161012b91906109d4565b60405180910390f35b34801561014057600080fd5b5061015b60048036038101906101569190610a52565b6104c6565b60405161016891906109d4565b60405180910390f35b34801561017d57600080fd5b506101866104de565b005b34801561019457600080fd5b5061019d610701565b6040516101aa9190610a9a565b60405180910390f35b3480156101bf57600080fd5b506101c8610714565b6040516101d59190610ac4565b60405180910390f35b3480156101ea57600080fd5b506101f3610738565b60405161020091906109d4565b60405180910390f35b34801561021557600080fd5b5061021e61073e565b60405161022b91906109d4565b60405180910390f35b34801561024057600080fd5b50610249610746565b6040516102569190610a9a565b60405180910390f35b610267610759565b005b34801561027557600080fd5b5061027e61096c565b60405161028b91906109d4565b60405180910390f35b3480156102a057600080fd5b506102a9610972565b6040516102bb96959493929190610adf565b60405180910390f35b60025481565b60008054906101000a900473ffffffffffffffffffffffffffffffffffffffff1673ffffffffffffffffffffffffffffffffffffffff163373ffffffffffffffffffffffffffffffffffffffff1614610358576040517f08c379a000000000000000000000000000000000000000000000000000000000815260040161034f90610b9d565b60405180910390fd5b60025442101561039d576040517f08c379a000000000000000000000000000000000000000000000000000000000815260040161039490610c09565b60405180910390fd5b600660009054906101000a900460ff166103ec576040517f08c379a00000000000000000000000000000000000000000000000000000000081526004016103e390610c75565b60405180910390fd5b600660019054906101000a900460ff161561043c576040517f08c379a000000000000000000000000000000000000000000000000000000000815260040161043390610ce1565b60405180910390fd5b6001600660016101000a81548160ff02191690831515021790555060008054906101000a900473ffffffffffffffffffffffffffffffffffffffff1673ffffffffffffffffffffffffffffffffffffffff166108fc479081150290604051600060405180830381858888f193505050501580156104bd573d6000803e3d6000fd5b50565b60015481565b60056020528060005260406000206000915090505481565b600254421015610523576040517f08c379a000000000000000000000000000000000000000000000000000000000815260040161051a90610c09565b60405180910390fd5b600660009054906101000a900460ff1615610573576040517f08c379a000000000000000000000000000000000000000000000000000000000815260040161056a90610d73565b60405180910390fd5b6000600560003373ffffffffffffffffffffffffffffffffffffffff1673ffffffffffffffffffffffffffffffffffffffff16815260200190815260200160002054116105f5576040517f08c379a00000000000000000000000000000000000000000000000000000000081526004016105ec90610ddf565b60405180910390fd5b6000600560003373ffffffffffffffffffffffffffffffffffffffff1673ffffffffffffffffffffffffffffffffffffffff1681526020019081526020016000205490506000600560003373ffffffffffffffffffffffffffffffffffffffff1673ffffffffffffffffffffffffffffffffffffffff168152602001908152602001600020819055503373ffffffffffffffffffffffffffffffffffffffff166108fc829081150290604051600060405180830381858888f193505050501580156106c4573d6000803e3d6000fd5b507fd7dee2702d63ad89917b6a4da9981c90c4d24f8c2bdfd64c604ecae57d8d065133826040516106f6929190610dff565b60405180910390a150565b600660009054906101000a900460ff1681565b60008054906101000a900473ffffffffffffffffffffffffffffffffffffffff1681565b60035481565b600047905090565b600660019054906101000a900460ff1681565b600254421061079d576040517f08c379a000000000000000000000000000000000000000000000000000000000815260040161079490610e74565b60405180910390fd5b662386f26fc100003410156107e7576040517f08c379a00000000000000000000000000000000000000000000000000000000081526004016107de90610ee0565b60405180910390fd5b6000600560003373ffffffffffffffffffffffffffffffffffffffff1673ffffffffffffffffffffffffffffffffffffffff1681526020019081526020016000205403610847576004600081548092919061084190610f2f565b91905055505b34600560003373ffffffffffffffffffffffffffffffffffffffff1673ffffffffffffffffffffffffffffffffffffffff16815260200190815260200160002060008282546108969190610f77565b9250508190555034600360008282546108af9190610f77565b925050819055507f54a5b8782470a0d2c022b3b9e5e729503ac5dbdfe053afeb4559f9297f7565a633346040516108e7929190610dff565b60405180910390a1600154600354101580156109105750600660009054906101000a900460ff16155b1561096a576001600660006101000a81548160ff0219169083151502179055507ffbfd8ab7c24300fa9888cd721c8565a7da56759384781283684dcf7c7c4a846b60035460405161096191906109d4565b60405180910390a15b565b60045481565b600080600080600080600154600254600354600454600660009054906101000a900460ff16600660019054906101000a900460ff16955095509550955095509550909192939495565b6000819050919050565b6109ce816109bb565b82525050565b60006020820190506109e960008301846109c5565b92915050565b600080fd5b600073ffffffffffffffffffffffffffffffffffffffff82169050919050565b6000610a1f826109f4565b9050919050565b610a2f81610a14565b8114610a3a57600080fd5b50565b600081359050610a4c81610a26565b92915050565b600060208284031215610a6857610a676109ef565b5b6000610a7684828501610a3d565b91505092915050565b60008115159050919050565b610a9481610a7f565b82525050565b6000602082019050610aaf6000830184610a8b565b92915050565b610abe81610a14565b82525050565b6000602082019050610ad96000830184610ab5565b92915050565b600060c082019050610af460008301896109c5565b610b0160208301886109c5565b610b0e60408301876109c5565b610b1b60608301866109c5565b610b286080830185610a8b565b610b3560a0830184610a8b565b979650505050505050565b600082825260208201905092915050565b7f4f6e6c79206f776e65722063616e20706572666f726d20746869730000000000600082015250565b6000610b87601b83610b40565b9150610b9282610b51565b602082019050919050565b60006020820190508181036000830152610bb681610b7a565b9050919050565b7f446561646c696e65206e6f742072656163686564207965740000000000000000600082015250565b6000610bf3601883610b40565b9150610bfe82610bbd565b602082019050919050565b60006020820190508181036000830152610c2281610be6565b9050919050565b7f476f616c206e6f74207265616368656400000000000000000000000000000000600082015250565b6000610c5f601083610b40565b9150610c6a82610c29565b602082019050919050565b60006020820190508181036000830152610c8e81610c52565b9050919050565b7f416c72656164792077697468647261776e000000000000000000000000000000600082015250565b6000610ccb601183610b40565b9150610cd682610c95565b602082019050919050565b60006020820190508181036000830152610cfa81610cbe565b9050919050565b7f476f616c2077617320726561636865642c20726566756e64206e6f7420706f7360008201527f7369626c65000000000000000000000000000000000000000000000000000000602082015250565b6000610d5d602583610b40565b9150610d6882610d01565b604082019050919050565b60006020820190508181036000830152610d8c81610d50565b9050919050565b7f4e6f20636f6e747269627574696f6e7320666f756e6400000000000000000000600082015250565b6000610dc9601683610b40565b9150610dd482610d93565b602082019050919050565b60006020820190508181036000830152610df881610dbc565b9050919050565b6000604082019050610e146000830185610ab5565b610e2160208301846109c5565b9392505050565b7f446561646c696e65207061737365640000000000000000000000000000000000600082015250565b6000610e5e600f83610b40565b9150610e6982610e28565b602082019050919050565b60006020820190508181036000830152610e8d81610e51565b9050919050565b7f4d696e696d756d20636f6e747269627574696f6e20697320302e303120455448600082015250565b6000610eca602083610b40565b9150610ed582610e94565b602082019050919050565b60006020820190508181036000830152610ef981610ebd565b9050919050565b7f4e487b7100000000000000000000000000000000000000000000000000000000600052601160045260246000fd5b6000610f3a826109bb565b91507fffffffffffffffffffffffffffffffffffffffffffffffffffffffffffffffff8203610f6c57610f6b610f00565b5b600182019050919050565b6000610f82826109bb565b9150610f8d836109bb565b9250828201905080821115610fa557610fa4610f00565b5b9291505056fea264697066735822122035ec845742a6216c56533d49aecb787001266d59e0502d76131c7cf45a4cc11e64736f6c634300081a0033",
					"opcodes": "PUSH1 0x80 PUSH1 0x40 MSTORE CALLVALUE DUP1 ISZERO PUSH2 0x10 JUMPI PUSH1 0x0 DUP1 REVERT JUMPDEST POP PUSH1 0x40 MLOAD PUSH2 0x11AE CODESIZE SUB DUP1 PUSH2 0x11AE DUP4 CODECOPY DUP2 DUP2 ADD PUSH1 0x40 MSTORE DUP2 ADD SWAP1 PUSH2 0x32 SWAP2 SWAP1 PUSH2 0xD9 JUMP JUMPDEST CALLER PUSH1 0x0 DUP1 PUSH2 0x100 EXP DUP2 SLOAD DUP2 PUSH20 0xFFFFFFFFFFFFFFFFFFFFFFFFFFFFFFFFFFFFFFFF MUL NOT AND SWAP1 DUP4 PUSH20 0xFFFFFFFFFFFFFFFFFFFFFFFFFFFFFFFFFFFFFFFF AND MUL OR SWAP1 SSTORE POP DUP2 PUSH1 0x1 DUP2 SWAP1 SSTORE POP PUSH1 0x3C DUP2 PUSH2 0x86 SWAP2 SWAP1 PUSH2 0x148 JUMP JUMPDEST TIMESTAMP PUSH2 0x91 SWAP2 SWAP1 PUSH2 0x18A JUMP JUMPDEST PUSH1 0x2 DUP2 SWAP1 SSTORE POP POP POP PUSH2 0x1BE JUMP JUMPDEST PUSH1 0x0 DUP1 REVERT JUMPDEST PUSH1 0x0 DUP2 SWAP1 POP SWAP2 SWAP1 POP JUMP JUMPDEST PUSH2 0xB6 DUP2 PUSH2 0xA3 JUMP JUMPDEST DUP2 EQ PUSH2 0xC1 JUMPI PUSH1 0x0 DUP1 REVERT JUMPDEST POP JUMP JUMPDEST PUSH1 0x0 DUP2 MLOAD SWAP1 POP PUSH2 0xD3 DUP2 PUSH2 0xAD JUMP JUMPDEST SWAP3 SWAP2 POP POP JUMP JUMPDEST PUSH1 0x0 DUP1 PUSH1 0x40 DUP4 DUP6 SUB SLT ISZERO PUSH2 0xF0 JUMPI PUSH2 0xEF PUSH2 0x9E JUMP JUMPDEST JUMPDEST PUSH1 0x0 PUSH2 0xFE DUP6 DUP3 DUP7 ADD PUSH2 0xC4 JUMP JUMPDEST SWAP3 POP POP PUSH1 0x20 PUSH2 0x10F DUP6 DUP3 DUP7 ADD PUSH2 0xC4 JUMP JUMPDEST SWAP2 POP POP SWAP3 POP SWAP3 SWAP1 POP JUMP JUMPDEST PUSH32 0x4E487B7100000000000000000000000000000000000000000000000000000000 PUSH1 0x0 MSTORE PUSH1 0x11 PUSH1 0x4 MSTORE PUSH1 0x24 PUSH1 0x0 REVERT JUMPDEST PUSH1 0x0 PUSH2 0x153 DUP3 PUSH2 0xA3 JUMP JUMPDEST SWAP2 POP PUSH2 0x15E DUP4 PUSH2 0xA3 JUMP JUMPDEST SWAP3 POP DUP3 DUP3 MUL PUSH2 0x16C DUP2 PUSH2 0xA3 JUMP JUMPDEST SWAP2 POP DUP3 DUP3 DIV DUP5 EQ DUP4 ISZERO OR PUSH2 0x183 JUMPI PUSH2 0x182 PUSH2 0x119 JUMP JUMPDEST JUMPDEST POP SWAP3 SWAP2 POP POP JUMP JUMPDEST PUSH1 0x0 PUSH2 0x195 DUP3 PUSH2 0xA3 JUMP JUMPDEST SWAP2 POP PUSH2 0x1A0 DUP4 PUSH2 0xA3 JUMP JUMPDEST SWAP3 POP DUP3 DUP3 ADD SWAP1 POP DUP1 DUP3 GT ISZERO PUSH2 0x1B8 JUMPI PUSH2 0x1B7 PUSH2 0x119 JUMP JUMPDEST JUMPDEST SWAP3 SWAP2 POP POP JUMP JUMPDEST PUSH2 0xFE1 DUP1 PUSH2 0x1CD PUSH1 0x0 CODECOPY PUSH1 0x0 RETURN INVALID PUSH1 0x80 PUSH1 0x40 MSTORE PUSH1 0x4 CALLDATASIZE LT PUSH2 0xC2 JUMPI PUSH1 0x0 CALLDATALOAD PUSH1 0xE0 SHR DUP1 PUSH4 0x8DA5CB5B GT PUSH2 0x7F JUMPI DUP1 PUSH4 0xC80EC522 GT PUSH2 0x59 JUMPI DUP1 PUSH4 0xC80EC522 EQ PUSH2 0x234 JUMPI DUP1 PUSH4 0xD7BB99BA EQ PUSH2 0x25F JUMPI DUP1 PUSH4 0xECFD8928 EQ PUSH2 0x269 JUMPI DUP1 PUSH4 0xFBBF93A0 EQ PUSH2 0x294 JUMPI PUSH2 0xC2 JUMP JUMPDEST DUP1 PUSH4 0x8DA5CB5B EQ PUSH2 0x1B3 JUMPI DUP1 PUSH4 0xC59EE1DC EQ PUSH2 0x1DE JUMPI DUP1 PUSH4 0xC71DACCB EQ PUSH2 0x209 JUMPI PUSH2 0xC2 JUMP JUMPDEST DUP1 PUSH4 0x29DCB0CF EQ PUSH2 0xC7 JUMPI DUP1 PUSH4 0x3CCFD60B EQ PUSH2 0xF2 JUMPI DUP1 PUSH4 0x40193883 EQ PUSH2 0x109 JUMPI DUP1 PUSH4 0x42E94C90 EQ PUSH2 0x134 JUMPI DUP1 PUSH4 0x590E1AE3 EQ PUSH2 0x171 JUMPI DUP1 PUSH4 0x7D3D6522 EQ PUSH2 0x188 JUMPI JUMPDEST PUSH1 0x0 DUP1 REVERT JUMPDEST CALLVALUE DUP1 ISZERO PUSH2 0xD3 JUMPI PUSH1 0x0 DUP1 REVERT JUMPDEST POP PUSH2 0xDC PUSH2 0x2C4 JUMP JUMPDEST PUSH1 0x40 MLOAD PUSH2 0xE9 SWAP2 SWAP1 PUSH2 0x9D4 JUMP JUMPDEST PUSH1 0x40 MLOAD DUP1 SWAP2 SUB SWAP1 RETURN JUMPDEST CALLVALUE DUP1 ISZERO PUSH2 0xFE JUMPI PUSH1 0x0 DUP1 REVERT JUMPDEST POP PUSH2 0x107 PUSH2 0x2CA JUMP JUMPDEST STOP JUMPDEST CALLVALUE DUP1 ISZERO PUSH2 0x115 JUMPI PUSH1 0x0 DUP1 REVERT JUMPDEST POP PUSH2 0x11E PUSH2 0x4C0 JUMP JUMPDEST PUSH1 0x40 MLOAD PUSH2 0x12B SWAP2 SWAP1 PUSH2 0x9D4 JUMP JUMPDEST PUSH1 0x40 MLOAD DUP1 SWAP2 SUB SWAP1 RETURN JUMPDEST CALLVALUE DUP1 ISZERO PUSH2 0x140 JUMPI PUSH1 0x0 DUP1 REVERT JUMPDEST POP PUSH2 0x15B PUSH1 0x4 DUP1 CALLDATASIZE SUB DUP2 ADD SWAP1 PUSH2 0x156 SWAP2 SWAP1 PUSH2 0xA52 JUMP JUMPDEST PUSH2 0x4C6 JUMP JUMPDEST PUSH1 0x40 MLOAD PUSH2 0x168 SWAP2 SWAP1 PUSH2 0x9D4 JUMP JUMPDEST PUSH1 0x40 MLOAD DUP1 SWAP2 SUB SWAP1 RETURN JUMPDEST CALLVALUE DUP1 ISZERO PUSH2 0x17D JUMPI PUSH1 0x0 DUP1 REVERT JUMPDEST POP PUSH2 0x186 PUSH2 0x4DE JUMP JUMPDEST STOP JUMPDEST CALLVALUE DUP1 ISZERO PUSH2 0x194 JUMPI PUSH1 0x0 DUP1 REVERT JUMPDEST POP PUSH2 0x19D PUSH2 0x701 JUMP JUMPDEST PUSH1 0x40 MLOAD PUSH2 0x1AA SWAP2 SWAP1 PUSH2 0xA9A JUMP JUMPDEST PUSH1 0x40 MLOAD DUP1 SWAP2 SUB SWAP1 RETURN JUMPDEST CALLVALUE DUP1 ISZERO PUSH2 0x1BF JUMPI PUSH1 0x0 DUP1 REVERT JUMPDEST POP PUSH2 0x1C8 PUSH2 0x714 JUMP JUMPDEST PUSH1 0x40 MLOAD PUSH2 0x1D5 SWAP2 SWAP1 PUSH2 0xAC4 JUMP JUMPDEST PUSH1 0x40 MLOAD DUP1 SWAP2 SUB SWAP1 RETURN JUMPDEST CALLVALUE DUP1 ISZERO PUSH2 0x1EA JUMPI PUSH1 0x0 DUP1 REVERT JUMPDEST POP PUSH2 0x1F3 PUSH2 0x738 JUMP JUMPDEST PUSH1 0x40 MLOAD PUSH2 0x200 SWAP2 SWAP1 PUSH2 0x9D4 JUMP JUMPDEST PUSH1 0x40 MLOAD DUP1 SWAP2 SUB SWAP1 RETURN JUMPDEST CALLVALUE DUP1 ISZERO PUSH2 0x215 JUMPI PUSH1 0x0 DUP1 REVERT JUMPDEST POP PUSH2 0x21E PUSH2 0x73E JUMP JUMPDEST PUSH1 0x40 MLOAD PUSH2 0x22B SWAP2 SWAP1 PUSH2 0x9D4 JUMP JUMPDEST PUSH1 0x40 MLOAD DUP1 SWAP2 SUB SWAP1 RETURN JUMPDEST CALLVALUE DUP1 ISZERO PUSH2 0x240 JUMPI PUSH1 0x0 DUP1 REVERT JUMPDEST POP PUSH2 0x249 PUSH2 0x746 JUMP JUMPDEST PUSH1 0x40 MLOAD PUSH2 0x256 SWAP2 SWAP1 PUSH2 0xA9A JUMP JUMPDEST PUSH1 0x40 MLOAD DUP1 SWAP2 SUB SWAP1 RETURN JUMPDEST PUSH2 0x267 PUSH2 0x759 JUMP JUMPDEST STOP JUMPDEST CALLVALUE DUP1 ISZERO PUSH2 0x275 JUMPI PUSH1 0x0 DUP1 REVERT JUMPDEST POP PUSH2 0x27E PUSH2 0x96C JUMP JUMPDEST PUSH1 0x40 MLOAD PUSH2 0x28B SWAP2 SWAP1 PUSH2 0x9D4 JUMP JUMPDEST PUSH1 0x40 MLOAD DUP1 SWAP2 SUB SWAP1 RETURN JUMPDEST CALLVALUE DUP1 ISZERO PUSH2 0x2A0 JUMPI PUSH1 0x0 DUP1 REVERT JUMPDEST POP PUSH2 0x2A9 PUSH2 0x972 JUMP JUMPDEST PUSH1 0x40 MLOAD PUSH2 0x2BB SWAP7 SWAP6 SWAP5 SWAP4 SWAP3 SWAP2 SWAP1 PUSH2 0xADF JUMP JUMPDEST PUSH1 0x40 MLOAD DUP1 SWAP2 SUB SWAP1 RETURN JUMPDEST PUSH1 0x2 SLOAD DUP2 JUMP JUMPDEST PUSH1 0x0 DUP1 SLOAD SWAP1 PUSH2 0x100 EXP SWAP1 DIV PUSH20 0xFFFFFFFFFFFFFFFFFFFFFFFFFFFFFFFFFFFFFFFF AND PUSH20 0xFFFFFFFFFFFFFFFFFFFFFFFFFFFFFFFFFFFFFFFF AND CALLER PUSH20 0xFFFFFFFFFFFFFFFFFFFFFFFFFFFFFFFFFFFFFFFF AND EQ PUSH2 0x358 JUMPI PUSH1 0x40 MLOAD PUSH32 0x8C379A000000000000000000000000000000000000000000000000000000000 DUP2 MSTORE PUSH1 0x4 ADD PUSH2 0x34F SWAP1 PUSH2 0xB9D JUMP JUMPDEST PUSH1 0x40 MLOAD DUP1 SWAP2 SUB SWAP1 REVERT JUMPDEST PUSH1 0x2 SLOAD TIMESTAMP LT ISZERO PUSH2 0x39D JUMPI PUSH1 0x40 MLOAD PUSH32 0x8C379A000000000000000000000000000000000000000000000000000000000 DUP2 MSTORE PUSH1 0x4 ADD PUSH2 0x394 SWAP1 PUSH2 0xC09 JUMP JUMPDEST PUSH1 0x40 MLOAD DUP1 SWAP2 SUB SWAP1 REVERT JUMPDEST PUSH1 0x6 PUSH1 0x0 SWAP1 SLOAD SWAP1 PUSH2 0x100 EXP SWAP1 DIV PUSH1 0xFF AND PUSH2 0x3EC JUMPI PUSH1 0x40 MLOAD PUSH32 0x8C379A000000000000000000000000000000000000000000000000000000000 DUP2 MSTORE PUSH1 0x4 ADD PUSH2 0x3E3 SWAP1 PUSH2 0xC75 JUMP JUMPDEST PUSH1 0x40 MLOAD DUP1 SWAP2 SUB SWAP1 REVERT JUMPDEST PUSH1 0x6 PUSH1 0x1 SWAP1 SLOAD SWAP1 PUSH2 0x100 EXP SWAP1 DIV PUSH1 0xFF AND ISZERO PUSH2 0x43C JUMPI PUSH1 0x40 MLOAD PUSH32 0x8C379A000000000000000000000000000000000000000000000000000000000 DUP2 MSTORE PUSH1 0x4 ADD PUSH2 0x433 SWAP1 PUSH2 0xCE1 JUMP JUMPDEST PUSH1 0x40 MLOAD DUP1 SWAP2 SUB SWAP1 REVERT JUMPDEST PUSH1 0x1 PUSH1 0x6 PUSH1 0x1 PUSH2 0x100 EXP DUP2 SLOAD DUP2 PUSH1 0xFF MUL NOT AND SWAP1 DUP4 ISZERO ISZERO MUL OR SWAP1 SSTORE POP PUSH1 0x0 DUP1 SLOAD SWAP1 PUSH2 0x100 EXP SWAP1 DIV PUSH20 0xFFFFFFFFFFFFFFFFFFFFFFFFFFFFFFFFFFFFFFFF AND PUSH20 0xFFFFFFFFFFFFFFFFFFFFFFFFFFFFFFFFFFFFFFFF AND PUSH2 0x8FC SELFBALANCE SWAP1 DUP2 ISZERO MUL SWAP1 PUSH1 0x40 MLOAD PUSH1 0x0 PUSH1 0x40 MLOAD DUP1 DUP4 SUB DUP2 DUP6 DUP9 DUP9 CALL SWAP4 POP POP POP POP ISZERO DUP1 ISZERO PUSH2 0x4BD JUMPI RETURNDATASIZE PUSH1 0x0 DUP1 RETURNDATACOPY RETURNDATASIZE PUSH1 0x0 REVERT JUMPDEST POP JUMP JUMPDEST PUSH1 0x1 SLOAD DUP2 JUMP JUMPDEST PUSH1 0x5 PUSH1 0x20 MSTORE DUP1 PUSH1 0x0 MSTORE PUSH1 0x40 PUSH1 0x0 KECCAK256 PUSH1 0x0 SWAP2 POP SWAP1 POP SLOAD DUP2 JUMP JUMPDEST PUSH1 0x2 SLOAD TIMESTAMP LT ISZERO PUSH2 0x523 JUMPI PUSH1 0x40 MLOAD PUSH32 0x8C379A000000000000000000000000000000000000000000000000000000000 DUP2 MSTORE PUSH1 0x4 ADD PUSH2 0x51A SWAP1 PUSH2 0xC09 JUMP JUMPDEST PUSH1 0x40 MLOAD DUP1 SWAP2 SUB SWAP1 REVERT JUMPDEST PUSH1 0x6 PUSH1 0x0 SWAP1 SLOAD SWAP1 PUSH2 0x100 EXP SWAP1 DIV PUSH1 0xFF AND ISZERO PUSH2 0x573 JUMPI PUSH1 0x40 MLOAD PUSH32 0x8C379A000000000000000000000000000000000000000000000000000000000 DUP2 MSTORE PUSH1 0x4 ADD PUSH2 0x56A SWAP1 PUSH2 0xD73 JUMP JUMPDEST PUSH1 0x40 MLOAD DUP1 SWAP2 SUB SWAP1 REVERT JUMPDEST PUSH1 0x0 PUSH1 0x5 PUSH1 0x0 CALLER PUSH20 0xFFFFFFFFFFFFFFFFFFFFFFFFFFFFFFFFFFFFFFFF AND PUSH20 0xFFFFFFFFFFFFFFFFFFFFFFFFFFFFFFFFFFFFFFFF AND DUP2 MSTORE PUSH1 0x20 ADD SWAP1 DUP2 MSTORE PUSH1 0x20 ADD PUSH1 0x0 KECCAK256 SLOAD GT PUSH2 0x5F5 JUMPI PUSH1 0x40 MLOAD PUSH32 0x8C379A000000000000000000000000000000000000000000000000000000000 DUP2 MSTORE PUSH1 0x4 ADD PUSH2 0x5EC SWAP1 PUSH2 0xDDF JUMP JUMPDEST PUSH1 0x40 MLOAD DUP1 SWAP2 SUB SWAP1 REVERT JUMPDEST PUSH1 0x0 PUSH1 0x5 PUSH1 0x0 CALLER PUSH20 0xFFFFFFFFFFFFFFFFFFFFFFFFFFFFFFFFFFFFFFFF AND PUSH20 0xFFFFFFFFFFFFFFFFFFFFFFFFFFFFFFFFFFFFFFFF AND DUP2 MSTORE PUSH1 0x20 ADD SWAP1 DUP2 MSTORE PUSH1 0x20 ADD PUSH1 0x0 KECCAK256 SLOAD SWAP1 POP PUSH1 0x0 PUSH1 0x5 PUSH1 0x0 CALLER PUSH20 0xFFFFFFFFFFFFFFFFFFFFFFFFFFFFFFFFFFFFFFFF AND PUSH20 0xFFFFFFFFFFFFFFFFFFFFFFFFFFFFFFFFFFFFFFFF AND DUP2 MSTORE PUSH1 0x20 ADD SWAP1 DUP2 MSTORE PUSH1 0x20 ADD PUSH1 0x0 KECCAK256 DUP2 SWAP1 SSTORE POP CALLER PUSH20 0xFFFFFFFFFFFFFFFFFFFFFFFFFFFFFFFFFFFFFFFF AND PUSH2 0x8FC DUP3 SWAP1 DUP2 ISZERO MUL SWAP1 PUSH1 0x40 MLOAD PUSH1 0x0 PUSH1 0x40 MLOAD DUP1 DUP4 SUB DUP2 DUP6 DUP9 DUP9 CALL SWAP4 POP POP POP POP ISZERO DUP1 ISZERO PUSH2 0x6C4 JUMPI RETURNDATASIZE PUSH1 0x0 DUP1 RETURNDATACOPY RETURNDATASIZE PUSH1 0x0 REVERT JUMPDEST POP PUSH32 0xD7DEE2702D63AD89917B6A4DA9981C90C4D24F8C2BDFD64C604ECAE57D8D0651 CALLER DUP3 PUSH1 0x40 MLOAD PUSH2 0x6F6 SWAP3 SWAP2 SWAP1 PUSH2 0xDFF JUMP JUMPDEST PUSH1 0x40 MLOAD DUP1 SWAP2 SUB SWAP1 LOG1 POP JUMP JUMPDEST PUSH1 0x6 PUSH1 0x0 SWAP1 SLOAD SWAP1 PUSH2 0x100 EXP SWAP1 DIV PUSH1 0xFF AND DUP2 JUMP JUMPDEST PUSH1 0x0 DUP1 SLOAD SWAP1 PUSH2 0x100 EXP SWAP1 DIV PUSH20 0xFFFFFFFFFFFFFFFFFFFFFFFFFFFFFFFFFFFFFFFF AND DUP2 JUMP JUMPDEST PUSH1 0x3 SLOAD DUP2 JUMP JUMPDEST PUSH1 0x0 SELFBALANCE SWAP1 POP SWAP1 JUMP JUMPDEST PUSH1 0x6 PUSH1 0x1 SWAP1 SLOAD SWAP1 PUSH2 0x100 EXP SWAP1 DIV PUSH1 0xFF AND DUP2 JUMP JUMPDEST PUSH1 0x2 SLOAD TIMESTAMP LT PUSH2 0x79D JUMPI PUSH1 0x40 MLOAD PUSH32 0x8C379A000000000000000000000000000000000000000000000000000000000 DUP2 MSTORE PUSH1 0x4 ADD PUSH2 0x794 SWAP1 PUSH2 0xE74 JUMP JUMPDEST PUSH1 0x40 MLOAD DUP1 SWAP2 SUB SWAP1 REVERT JUMPDEST PUSH7 0x2386F26FC10000 CALLVALUE LT ISZERO PUSH2 0x7E7 JUMPI PUSH1 0x40 MLOAD PUSH32 0x8C379A000000000000000000000000000000000000000000000000000000000 DUP2 MSTORE PUSH1 0x4 ADD PUSH2 0x7DE SWAP1 PUSH2 0xEE0 JUMP JUMPDEST PUSH1 0x40 MLOAD DUP1 SWAP2 SUB SWAP1 REVERT JUMPDEST PUSH1 0x0 PUSH1 0x5 PUSH1 0x0 CALLER PUSH20 0xFFFFFFFFFFFFFFFFFFFFFFFFFFFFFFFFFFFFFFFF AND PUSH20 0xFFFFFFFFFFFFFFFFFFFFFFFFFFFFFFFFFFFFFFFF AND DUP2 MSTORE PUSH1 0x20 ADD SWAP1 DUP2 MSTORE PUSH1 0x20 ADD PUSH1 0x0 KECCAK256 SLOAD SUB PUSH2 0x847 JUMPI PUSH1 0x4 PUSH1 0x0 DUP2 SLOAD DUP1 SWAP3 SWAP2 SWAP1 PUSH2 0x841 SWAP1 PUSH2 0xF2F JUMP JUMPDEST SWAP2 SWAP1 POP SSTORE POP JUMPDEST CALLVALUE PUSH1 0x5 PUSH1 0x0 CALLER PUSH20 0xFFFFFFFFFFFFFFFFFFFFFFFFFFFFFFFFFFFFFFFF AND PUSH20 0xFFFFFFFFFFFFFFFFFFFFFFFFFFFFFFFFFFFFFFFF AND DUP2 MSTORE PUSH1 0x20 ADD SWAP1 DUP2 MSTORE PUSH1 0x20 ADD PUSH1 0x0 KECCAK256 PUSH1 0x0 DUP3 DUP3 SLOAD PUSH2 0x896 SWAP2 SWAP1 PUSH2 0xF77 JUMP JUMPDEST SWAP3 POP POP DUP2 SWAP1 SSTORE POP CALLVALUE PUSH1 0x3 PUSH1 0x0 DUP3 DUP3 SLOAD PUSH2 0x8AF SWAP2 SWAP1 PUSH2 0xF77 JUMP JUMPDEST SWAP3 POP POP DUP2 SWAP1 SSTORE POP PUSH32 0x54A5B8782470A0D2C022B3B9E5E729503AC5DBDFE053AFEB4559F9297F7565A6 CALLER CALLVALUE PUSH1 0x40 MLOAD PUSH2 0x8E7 SWAP3 SWAP2 SWAP1 PUSH2 0xDFF JUMP JUMPDEST PUSH1 0x40 MLOAD DUP1 SWAP2 SUB SWAP1 LOG1 PUSH1 0x1 SLOAD PUSH1 0x3 SLOAD LT ISZERO DUP1 ISZERO PUSH2 0x910 JUMPI POP PUSH1 0x6 PUSH1 0x0 SWAP1 SLOAD SWAP1 PUSH2 0x100 EXP SWAP1 DIV PUSH1 0xFF AND ISZERO JUMPDEST ISZERO PUSH2 0x96A JUMPI PUSH1 0x1 PUSH1 0x6 PUSH1 0x0 PUSH2 0x100 EXP DUP2 SLOAD DUP2 PUSH1 0xFF MUL NOT AND SWAP1 DUP4 ISZERO ISZERO MUL OR SWAP1 SSTORE POP PUSH32 0xFBFD8AB7C24300FA9888CD721C8565A7DA56759384781283684DCF7C7C4A846B PUSH1 0x3 SLOAD PUSH1 0x40 MLOAD PUSH2 0x961 SWAP2 SWAP1 PUSH2 0x9D4 JUMP JUMPDEST PUSH1 0x40 MLOAD DUP1 SWAP2 SUB SWAP1 LOG1 JUMPDEST JUMP JUMPDEST PUSH1 0x4 SLOAD DUP2 JUMP JUMPDEST PUSH1 0x0 DUP1 PUSH1 0x0 DUP1 PUSH1 0x0 DUP1 PUSH1 0x1 SLOAD PUSH1 0x2 SLOAD PUSH1 0x3 SLOAD PUSH1 0x4 SLOAD PUSH1 0x6 PUSH1 0x0 SWAP1 SLOAD SWAP1 PUSH2 0x100 EXP SWAP1 DIV PUSH1 0xFF AND PUSH1 0x6 PUSH1 0x1 SWAP1 SLOAD SWAP1 PUSH2 0x100 EXP SWAP1 DIV PUSH1 0xFF AND SWAP6 POP SWAP6 POP SWAP6 POP SWAP6 POP SWAP6 POP SWAP6 POP SWAP1 SWAP2 SWAP3 SWAP4 SWAP5 SWAP6 JUMP JUMPDEST PUSH1 0x0 DUP2 SWAP1 POP SWAP2 SWAP1 POP JUMP JUMPDEST PUSH2 0x9CE DUP2 PUSH2 0x9BB JUMP JUMPDEST DUP3 MSTORE POP POP JUMP JUMPDEST PUSH1 0x0 PUSH1 0x20 DUP3 ADD SWAP1 POP PUSH2 0x9E9 PUSH1 0x0 DUP4 ADD DUP5 PUSH2 0x9C5 JUMP JUMPDEST SWAP3 SWAP2 POP POP JUMP JUMPDEST PUSH1 0x0 DUP1 REVERT JUMPDEST PUSH1 0x0 PUSH20 0xFFFFFFFFFFFFFFFFFFFFFFFFFFFFFFFFFFFFFFFF DUP3 AND SWAP1 POP SWAP2 SWAP1 POP JUMP JUMPDEST PUSH1 0x0 PUSH2 0xA1F DUP3 PUSH2 0x9F4 JUMP JUMPDEST SWAP1 POP SWAP2 SWAP1 POP JUMP JUMPDEST PUSH2 0xA2F DUP2 PUSH2 0xA14 JUMP JUMPDEST DUP2 EQ PUSH2 0xA3A JUMPI PUSH1 0x0 DUP1 REVERT JUMPDEST POP JUMP JUMPDEST PUSH1 0x0 DUP2 CALLDATALOAD SWAP1 POP PUSH2 0xA4C DUP2 PUSH2 0xA26 JUMP JUMPDEST SWAP3 SWAP2 POP POP JUMP JUMPDEST PUSH1 0x0 PUSH1 0x20 DUP3 DUP5 SUB SLT ISZERO PUSH2 0xA68 JUMPI PUSH2 0xA67 PUSH2 0x9EF JUMP JUMPDEST JUMPDEST PUSH1 0x0 PUSH2 0xA76 DUP5 DUP3 DUP6 ADD PUSH2 0xA3D JUMP JUMPDEST SWAP2 POP POP SWAP3 SWAP2 POP POP JUMP JUMPDEST PUSH1 0x0 DUP2 ISZERO ISZERO SWAP1 POP SWAP2 SWAP1 POP JUMP JUMPDEST PUSH2 0xA94 DUP2 PUSH2 0xA7F JUMP JUMPDEST DUP3 MSTORE POP POP JUMP JUMPDEST PUSH1 0x0 PUSH1 0x20 DUP3 ADD SWAP1 POP PUSH2 0xAAF PUSH1 0x0 DUP4 ADD DUP5 PUSH2 0xA8B JUMP JUMPDEST SWAP3 SWAP2 POP POP JUMP JUMPDEST PUSH2 0xABE DUP2 PUSH2 0xA14 JUMP JUMPDEST DUP3 MSTORE POP POP JUMP JUMPDEST PUSH1 0x0 PUSH1 0x20 DUP3 ADD SWAP1 POP PUSH2 0xAD9 PUSH1 0x0 DUP4 ADD DUP5 PUSH2 0xAB5 JUMP JUMPDEST SWAP3 SWAP2 POP POP JUMP JUMPDEST PUSH1 0x0 PUSH1 0xC0 DUP3 ADD SWAP1 POP PUSH2 0xAF4 PUSH1 0x0 DUP4 ADD DUP10 PUSH2 0x9C5 JUMP JUMPDEST PUSH2 0xB01 PUSH1 0x20 DUP4 ADD DUP9 PUSH2 0x9C5 JUMP JUMPDEST PUSH2 0xB0E PUSH1 0x40 DUP4 ADD DUP8 PUSH2 0x9C5 JUMP JUMPDEST PUSH2 0xB1B PUSH1 0x60 DUP4 ADD DUP7 PUSH2 0x9C5 JUMP JUMPDEST PUSH2 0xB28 PUSH1 0x80 DUP4 ADD DUP6 PUSH2 0xA8B JUMP JUMPDEST PUSH2 0xB35 PUSH1 0xA0 DUP4 ADD DUP5 PUSH2 0xA8B JUMP JUMPDEST SWAP8 SWAP7 POP POP POP POP POP POP POP JUMP JUMPDEST PUSH1 0x0 DUP3 DUP3 MSTORE PUSH1 0x20 DUP3 ADD SWAP1 POP SWAP3 SWAP2 POP POP JUMP JUMPDEST PUSH32 0x4F6E6C79206F776E65722063616E20706572666F726D20746869730000000000 PUSH1 0x0 DUP3 ADD MSTORE POP JUMP JUMPDEST PUSH1 0x0 PUSH2 0xB87 PUSH1 0x1B DUP4 PUSH2 0xB40 JUMP JUMPDEST SWAP2 POP PUSH2 0xB92 DUP3 PUSH2 0xB51 JUMP JUMPDEST PUSH1 0x20 DUP3 ADD SWAP1 POP SWAP2 SWAP1 POP JUMP JUMPDEST PUSH1 0x0 PUSH1 0x20 DUP3 ADD SWAP1 POP DUP2 DUP2 SUB PUSH1 0x0 DUP4 ADD MSTORE PUSH2 0xBB6 DUP2 PUSH2 0xB7A JUMP JUMPDEST SWAP1 POP SWAP2 SWAP1 POP JUMP JUMPDEST PUSH32 0x446561646C696E65206E6F742072656163686564207965740000000000000000 PUSH1 0x0 DUP3 ADD MSTORE POP JUMP JUMPDEST PUSH1 0x0 PUSH2 0xBF3 PUSH1 0x18 DUP4 PUSH2 0xB40 JUMP JUMPDEST SWAP2 POP PUSH2 0xBFE DUP3 PUSH2 0xBBD JUMP JUMPDEST PUSH1 0x20 DUP3 ADD SWAP1 POP SWAP2 SWAP1 POP JUMP JUMPDEST PUSH1 0x0 PUSH1 0x20 DUP3 ADD SWAP1 POP DUP2 DUP2 SUB PUSH1 0x0 DUP4 ADD MSTORE PUSH2 0xC22 DUP2 PUSH2 0xBE6 JUMP JUMPDEST SWAP1 POP SWAP2 SWAP1 POP JUMP JUMPDEST PUSH32 0x476F616C206E6F74207265616368656400000000000000000000000000000000 PUSH1 0x0 DUP3 ADD MSTORE POP JUMP JUMPDEST PUSH1 0x0 PUSH2 0xC5F PUSH1 0x10 DUP4 PUSH2 0xB40 JUMP JUMPDEST SWAP2 POP PUSH2 0xC6A DUP3 PUSH2 0xC29 JUMP JUMPDEST PUSH1 0x20 DUP3 ADD SWAP1 POP SWAP2 SWAP1 POP JUMP JUMPDEST PUSH1 0x0 PUSH1 0x20 DUP3 ADD SWAP1 POP DUP2 DUP2 SUB PUSH1 0x0 DUP4 ADD MSTORE PUSH2 0xC8E DUP2 PUSH2 0xC52 JUMP JUMPDEST SWAP1 POP SWAP2 SWAP1 POP JUMP JUMPDEST PUSH32 0x416C72656164792077697468647261776E000000000000000000000000000000 PUSH1 0x0 DUP3 ADD MSTORE POP JUMP JUMPDEST PUSH1 0x0 PUSH2 0xCCB PUSH1 0x11 DUP4 PUSH2 0xB40 JUMP JUMPDEST SWAP2 POP PUSH2 0xCD6 DUP3 PUSH2 0xC95 JUMP JUMPDEST PUSH1 0x20 DUP3 ADD SWAP1 POP SWAP2 SWAP1 POP JUMP JUMPDEST PUSH1 0x0 PUSH1 0x20 DUP3 ADD SWAP1 POP DUP2 DUP2 SUB PUSH1 0x0 DUP4 ADD MSTORE PUSH2 0xCFA DUP2 PUSH2 0xCBE JUMP JUMPDEST SWAP1 POP SWAP2 SWAP1 POP JUMP JUMPDEST PUSH32 0x476F616C2077617320726561636865642C20726566756E64206E6F7420706F73 PUSH1 0x0 DUP3 ADD MSTORE PUSH32 0x7369626C65000000000000000000000000000000000000000000000000000000 PUSH1 0x20 DUP3 ADD MSTORE POP JUMP JUMPDEST PUSH1 0x0 PUSH2 0xD5D PUSH1 0x25 DUP4 PUSH2 0xB40 JUMP JUMPDEST SWAP2 POP PUSH2 0xD68 DUP3 PUSH2 0xD01 JUMP JUMPDEST PUSH1 0x40 DUP3 ADD SWAP1 POP SWAP2 SWAP1 POP JUMP JUMPDEST PUSH1 0x0 PUSH1 0x20 DUP3 ADD SWAP1 POP DUP2 DUP2 SUB PUSH1 0x0 DUP4 ADD MSTORE PUSH2 0xD8C DUP2 PUSH2 0xD50 JUMP JUMPDEST SWAP1 POP SWAP2 SWAP1 POP JUMP JUMPDEST PUSH32 0x4E6F20636F6E747269627574696F6E7320666F756E6400000000000000000000 PUSH1 0x0 DUP3 ADD MSTORE POP JUMP JUMPDEST PUSH1 0x0 PUSH2 0xDC9 PUSH1 0x16 DUP4 PUSH2 0xB40 JUMP JUMPDEST SWAP2 POP PUSH2 0xDD4 DUP3 PUSH2 0xD93 JUMP JUMPDEST PUSH1 0x20 DUP3 ADD SWAP1 POP SWAP2 SWAP1 POP JUMP JUMPDEST PUSH1 0x0 PUSH1 0x20 DUP3 ADD SWAP1 POP DUP2 DUP2 SUB PUSH1 0x0 DUP4 ADD MSTORE PUSH2 0xDF8 DUP2 PUSH2 0xDBC JUMP JUMPDEST SWAP1 POP SWAP2 SWAP1 POP JUMP JUMPDEST PUSH1 0x0 PUSH1 0x40 DUP3 ADD SWAP1 POP PUSH2 0xE14 PUSH1 0x0 DUP4 ADD DUP6 PUSH2 0xAB5 JUMP JUMPDEST PUSH2 0xE21 PUSH1 0x20 DUP4 ADD DUP5 PUSH2 0x9C5 JUMP JUMPDEST SWAP4 SWAP3 POP POP POP JUMP JUMPDEST PUSH32 0x446561646C696E65207061737365640000000000000000000000000000000000 PUSH1 0x0 DUP3 ADD MSTORE POP JUMP JUMPDEST PUSH1 0x0 PUSH2 0xE5E PUSH1 0xF DUP4 PUSH2 0xB40 JUMP JUMPDEST SWAP2 POP PUSH2 0xE69 DUP3 PUSH2 0xE28 JUMP JUMPDEST PUSH1 0x20 DUP3 ADD SWAP1 POP SWAP2 SWAP1 POP JUMP JUMPDEST PUSH1 0x0 PUSH1 0x20 DUP3 ADD SWAP1 POP DUP2 DUP2 SUB PUSH1 0x0 DUP4 ADD MSTORE PUSH2 0xE8D DUP2 PUSH2 0xE51 JUMP JUMPDEST SWAP1 POP SWAP2 SWAP1 POP JUMP JUMPDEST PUSH32 0x4D696E696D756D20636F6E747269627574696F6E20697320302E303120455448 PUSH1 0x0 DUP3 ADD MSTORE POP JUMP JUMPDEST PUSH1 0x0 PUSH2 0xECA PUSH1 0x20 DUP4 PUSH2 0xB40 JUMP JUMPDEST SWAP2 POP PUSH2 0xED5 DUP3 PUSH2 0xE94 JUMP JUMPDEST PUSH1 0x20 DUP3 ADD SWAP1 POP SWAP2 SWAP1 POP JUMP JUMPDEST PUSH1 0x0 PUSH1 0x20 DUP3 ADD SWAP1 POP DUP2 DUP2 SUB PUSH1 0x0 DUP4 ADD MSTORE PUSH2 0xEF9 DUP2 PUSH2 0xEBD JUMP JUMPDEST SWAP1 POP SWAP2 SWAP1 POP JUMP JUMPDEST PUSH32 0x4E487B7100000000000000000000000000000000000000000000000000000000 PUSH1 0x0 MSTORE PUSH1 0x11 PUSH1 0x4 MSTORE PUSH1 0x24 PUSH1 0x0 REVERT JUMPDEST PUSH1 0x0 PUSH2 0xF3A DUP3 PUSH2 0x9BB JUMP JUMPDEST SWAP2 POP PUSH32 0xFFFFFFFFFFFFFFFFFFFFFFFFFFFFFFFFFFFFFFFFFFFFFFFFFFFFFFFFFFFFFFFF DUP3 SUB PUSH2 0xF6C JUMPI PUSH2 0xF6B PUSH2 0xF00 JUMP JUMPDEST JUMPDEST PUSH1 0x1 DUP3 ADD SWAP1 POP SWAP2 SWAP1 POP JUMP JUMPDEST PUSH1 0x0 PUSH2 0xF82 DUP3 PUSH2 0x9BB JUMP JUMPDEST SWAP2 POP PUSH2 0xF8D DUP4 PUSH2 0x9BB JUMP JUMPDEST SWAP3 POP DUP3 DUP3 ADD SWAP1 POP DUP1 DUP3 GT ISZERO PUSH2 0xFA5 JUMPI PUSH2 0xFA4 PUSH2 0xF00 JUMP JUMPDEST JUMPDEST SWAP3 SWAP2 POP POP JUMP INVALID LOG2 PUSH5 0x6970667358 0x22 SLT KECCAK256 CALLDATALOAD 0xEC DUP5 JUMPI TIMESTAMP 0xA6 0x21 PUSH13 0x56533D49AECB787001266D59E0 POP 0x2D PUSH23 0x131C7CF45A4CC11E64736F6C634300081A003300000000 "
				},
				"gasEstimates": {
					"creation": {
						"codeDepositCost": "813000",
						"executionCost": "infinite",
						"totalCost": "infinite"
					},
					"external": {
						"checkBalance()": "406",
						"contribute()": "infinite",
						"contributions(address)": "1581",
						"contributorCount()": "1195",
						"deadline()": "1130",
						"getDetails()": "infinite",
						"goal()": "1174",
						"goalReached()": "1282",
						"owner()": "1234",
						"raisedAmount()": "1174",
						"refund()": "infinite",
						"withdraw()": "infinite",
						"withdrawn()": "1243"
					}
				},
				"methodIdentifiers": {
					"checkBalance()": "c71daccb",
					"contribute()": "d7bb99ba",
					"contributions(address)": "42e94c90",
					"contributorCount()": "ecfd8928",
					"deadline()": "29dcb0cf",
					"getDetails()": "fbbf93a0",
					"goal()": "40193883",
					"goalReached()": "7d3d6522",
					"owner()": "8da5cb5b",
					"raisedAmount()": "c59ee1dc",
					"refund()": "590e1ae3",
					"withdraw()": "3ccfd60b",
					"withdrawn()": "c80ec522"
				}
			},
			"storageLayout": {
				"storage": [
					{
						"astId": 3,
						"contract": "lab_exercise/lab_exercive.sol:CrowdFund",
						"label": "owner",
						"offset": 0,
						"slot": "0",
						"type": "t_address"
					},
					{
						"astId": 5,
						"contract": "lab_exercise/lab_exercive.sol:CrowdFund",
						"label": "goal",
						"offset": 0,
						"slot": "1",
						"type": "t_uint256"
					},
					{
						"astId": 7,
						"contract": "lab_exercise/lab_exercive.sol:CrowdFund",
						"label": "deadline",
						"offset": 0,
						"slot": "2",
						"type": "t_uint256"
					},
					{
						"astId": 9,
						"contract": "lab_exercise/lab_exercive.sol:CrowdFund",
						"label": "raisedAmount",
						"offset": 0,
						"slot": "3",
						"type": "t_uint256"
					},
					{
						"astId": 11,
						"contract": "lab_exercise/lab_exercive.sol:CrowdFund",
						"label": "contributorCount",
						"offset": 0,
						"slot": "4",
						"type": "t_uint256"
					},
					{
						"astId": 15,
						"contract": "lab_exercise/lab_exercive.sol:CrowdFund",
						"label": "contributions",
						"offset": 0,
						"slot": "5",
						"type": "t_mapping(t_address,t_uint256)"
					},
					{
						"astId": 17,
						"contract": "lab_exercise/lab_exercive.sol:CrowdFund",
						"label": "goalReached",
						"offset": 0,
						"slot": "6",
						"type": "t_bool"
					},
					{
						"astId": 19,
						"contract": "lab_exercise/lab_exercive.sol:CrowdFund",
						"label": "withdrawn",
						"offset": 1,
						"slot": "6",
						"type": "t_bool"
					}
				],
				"types": {
					"t_address": {
						"encoding": "inplace",
						"label": "address",
						"numberOfBytes": "20"
					},
					"t_bool": {
						"encoding": "inplace",
						"label": "bool",
						"numberOfBytes": "1"
					},
					"t_mapping(t_address,t_uint256)": {
						"encoding": "mapping",
						"key": "t_address",
						"label": "mapping(address => uint256)",
						"numberOfBytes": "32",
						"value": "t_uint256"
					},
					"t_uint256": {
						"encoding": "inplace",
						"label": "uint256",
						"numberOfBytes": "32"
					}
				}
			},
			"userdoc": {
				"kind": "user",
				"methods": {},
				"version": 1
			}
		}
	}
}