{
	"data": {
		"bytecode": {
			"linkReferences": {},
			"object": "6080604052348015600e575f80fd5b50605f80601a5f395ff3fe608060405260043610601b575f3560e01c8063c40e4c9314601f575b5f80fd5b60256027565b005b56fea2646970667358221220dba72ab8d608cb1d5ef718a0555a249225c8223b542ecac01a79f5744f7f9bfa64736f6c634300081a0033",
			"opcodes": "PUSH1 0x80 PUSH1 0x40 MSTORE CALLVALUE DUP1 ISZERO PUSH1 0xE JUMPI PUSH0 DUP1 REVERT JUMPDEST POP PUSH1 0x5F DUP1 PUSH1 0x1A PUSH0 CODECOPY PUSH0 RETURN INVALID PUSH1 0x80 PUSH1 0x40 MSTORE PUSH1 0x4 CALLDATASIZE LT PUSH1 0x1B JUMPI PUSH0 CALLDATALOAD PUSH1 0xE0 SHR DUP1 PUSH4 0xC40E4C93 EQ PUSH1 0x1F JUMPI JUMPDEST PUSH0 DUP1 REVERT JUMPDEST PUSH1 0x25 PUSH1 0x27 JUMP JUMPDEST STOP JUMPDEST JUMP INVALID LOG2 PUSH5 0x6970667358 0x22 SLT KECCAK256 0xDB 0xA7 0x2A 0xB8 0xD6 ADDMOD 0xCB SAR MCOPY 0xF7 XOR LOG0 SSTORE GAS 0x24 SWAP3 0x25 0xC8 0x22 EXTCODESIZE SLOAD 0x2E 0xCA 0xC0 BYTE PUSH26 0xF5744F7F9BFA64736F6C634300081A0033000000000000000000 "
		},
		"deployedBytecode": {
			"immutableReferences": {},
			"linkReferences": {},
			"object": "608060405260043610601b575f3560e01c8063c40e4c9314601f575b5f80fd5b60256027565b005b56fea2646970667358221220dba72ab8d608cb1d5ef718a0555a249225c8223b542ecac01a79f5744f7f9bfa64736f6c634300081a0033",
			"opcodes": "PUSH1 0x80 PUSH1 0x40 MSTORE PUSH1 0x4 CALLDATASIZE LT PUSH1 0x1B JUMPI PUSH0 CALLDATALOAD PUSH1 0xE0 SHR DUP1 PUSH4 0xC40E4C93 EQ PUSH1 0x1F JUMPI JUMPDEST PUSH0 DUP1 REVERT JUMPDEST PUSH1 0x25 PUSH1 0x27 JUMP JUMPDEST STOP JUMPDEST JUMP INVALID LOG2 PUSH5 0x6970667358 0x22 SLT KECCAK256 0xDB 0xA7 0x2A 0xB8 0xD6 ADDMOD 0xCB SAR MCOPY 0xF7 XOR LOG0 SSTORE GAS 0x24 SWAP3 0x25 0xC8 0x22 EXTCODESIZE SLOAD 0x2E 0xCA 0xC0 BYTE PUSH26 0xF5744F7F9BFA64736F6C634300081A0033000000000000000000 "
		},
		"gasEstimates": {
			"creation": {
				"codeDepositCost": "19000",
				"executionCost": "67",
				"totalCost": "19067"
			},
			"external": {
				"receivemoney()": "97"
			}
		},
		"methodIdentifiers": {
			"receivemoney()": "c40e4c93"
		}
	},
	"abi": [
		{
			"inputs": [],
			"name": "receivemoney",
			"outputs": [],
			"stateMutability": "payable",
			"type": "function"
		}
	]
}